{"abi":[{"type":"function","name":"createOrder","inputs":[{"name":"sourceToken","type":"address","internalType":"address"},{"name":"sourceAmount","type":"uint256","internalType":"uint256"},{"name":"destinationToken","type":"address","internalType":"address"},{"name":"destinationChainId","type":"uint32","internalType":"uint32"},{"name":"startReturnAmount","type":"uint256","internalType":"uint256"},{"name":"startTimestamp","type":"uint256","internalType":"uint256"},{"name":"minReturnAmount","type":"uint256","internalType":"uint256"},{"name":"expirationTimestamp","type":"uint256","internalType":"uint256"},{"name":"signature","type":"bytes","internalType":"bytes"}],"outputs":[{"name":"","type":"uint256","internalType":"uint256"}],"stateMutability":"nonpayable"},{"type":"function","name":"getCurrentReturnAmount","inputs":[{"name":"orderId","type":"uint256","internalType":"uint256"}],"outputs":[{"name":"","type":"uint256","internalType":"uint256"}],"stateMutability":"view"},{"type":"event","name":"BridgeFinished","inputs":[{"name":"orderId","type":"uint256","indexed":true,"internalType":"uint256"}],"anonymous":false},{"type":"event","name":"BridgeStarted","inputs":[{"name":"orderId","type":"uint256","indexed":true,"internalType":"uint256"}],"anonymous":false},{"type":"event","name":"OrderCreated","inputs":[{"name":"orderId","type":"uint256","indexed":true,"internalType":"uint256"},{"name":"maker","type":"address","indexed":true,"internalType":"address"}],"anonymous":false},{"type":"error","name":"DoubleOrder","inputs":[]},{"type":"error","name":"InsufficientAllowance","inputs":[]},{"type":"error","name":"InsufficientBalance","inputs":[]},{"type":"error","name":"InvalidSignature","inputs":[]},{"type":"error","name":"InvalidTimestamp","inputs":[]},{"type":"error","name":"OrderExpired","inputs":[]},{"type":"error","name":"ReentrancyGuardReentrantCall","inputs":[]},{"type":"error","name":"tokenNotMapped","inputs":[]}],"bytecode":{"object":"0x6080604052348015600e575f5ffd5b5060015f81905550610f54806100235f395ff3fe608060405234801561000f575f5ffd5b5060043610610034575f3560e01c80630e365e391461003857806363a08b9314610068575b5f5ffd5b610052600480360381019061004d9190610794565b610098565b60405161005f91906107ce565b60405180910390f35b610082600480360381019061007d91906108db565b61037f565b60405161008f91906107ce565b60405180910390f35b5f5f60025f8481526020019081526020015f20604051806101800160405290815f8201548152602001600182015f9054906101000a900473ffffffffffffffffffffffffffffffffffffffff1673ffffffffffffffffffffffffffffffffffffffff1673ffffffffffffffffffffffffffffffffffffffff168152602001600282015f9054906101000a900473ffffffffffffffffffffffffffffffffffffffff1673ffffffffffffffffffffffffffffffffffffffff1673ffffffffffffffffffffffffffffffffffffffff16815260200160038201548152602001600482015f9054906101000a900473ffffffffffffffffffffffffffffffffffffffff1673ffffffffffffffffffffffffffffffffffffffff1673ffffffffffffffffffffffffffffffffffffffff1681526020016004820160149054906101000a900463ffffffff1663ffffffff1663ffffffff1681526020016004820160189054906101000a900463ffffffff1663ffffffff1663ffffffff1681526020016005820154815260200160068201548152602001600782015481526020016008820154815260200160098201805461024d906109ed565b80601f0160208091040260200160405190810160405280929190818152602001828054610279906109ed565b80156102c45780601f1061029b576101008083540402835291602001916102c4565b820191905f5260205f20905b8154815290600101906020018083116102a757829003601f168201915b50505050508152505090508061010001514210156102e9578060e0015191505061037a565b80610140015142106103035780610120015191505061037a565b5f816101000151426103159190610a4a565b90505f82610100015183610140015161032e9190610a4a565b90505f8361012001518460e001516103469190610a4a565b90505f8284836103569190610a7d565b6103609190610aeb565b9050808560e001516103729190610a4a565b955050505050505b919050565b5f4284116103b9576040517fc56873ba00000000000000000000000000000000000000000000000000000000815260040160405180910390fd5b8386106103f2576040517fb7d0949700000000000000000000000000000000000000000000000000000000815260040160405180910390fd5b5f338c8c8c468d8d8d8d8d426040516020016104189b9a99989796959493929190610bb4565b604051602081830303815290604052805190602001205f1c90505f60015f8381526020019081526020015f20541461047c576040517f7d6d397700000000000000000000000000000000000000000000000000000000815260040160405180910390fd5b5f6040518061018001604052808381526020013373ffffffffffffffffffffffffffffffffffffffff1681526020018e73ffffffffffffffffffffffffffffffffffffffff1681526020018d81526020018c73ffffffffffffffffffffffffffffffffffffffff1681526020014663ffffffff1681526020018b63ffffffff1681526020018a815260200189815260200188815260200187815260200186868080601f0160208091040260200160405190810160405280939291908181526020018383808284375f81840152601f19601f8201169050808301925050505050505081525090508060025f8481526020019081526020015f205f820151815f01556020820151816001015f6101000a81548173ffffffffffffffffffffffffffffffffffffffff021916908373ffffffffffffffffffffffffffffffffffffffff1602179055506040820151816002015f6101000a81548173ffffffffffffffffffffffffffffffffffffffff021916908373ffffffffffffffffffffffffffffffffffffffff160217905550606082015181600301556080820151816004015f6101000a81548173ffffffffffffffffffffffffffffffffffffffff021916908373ffffffffffffffffffffffffffffffffffffffff16021790555060a08201518160040160146101000a81548163ffffffff021916908363ffffffff16021790555060c08201518160040160186101000a81548163ffffffff021916908363ffffffff16021790555060e082015181600501556101008201518160060155610120820151816007015561014082015181600801556101608201518160090190816106e79190610e4f565b50905050600260015f8481526020019081526020015f20819055503373ffffffffffffffffffffffffffffffffffffffff16827f4ceaea0569072c9203c8c195ffccdbca9851b9d0410f577878a6792f12ec9b5260405160405180910390a381925050509a9950505050505050505050565b5f5ffd5b5f5ffd5b5f819050919050565b61077381610761565b811461077d575f5ffd5b50565b5f8135905061078e8161076a565b92915050565b5f602082840312156107a9576107a8610759565b5b5f6107b684828501610780565b91505092915050565b6107c881610761565b82525050565b5f6020820190506107e15f8301846107bf565b92915050565b5f73ffffffffffffffffffffffffffffffffffffffff82169050919050565b5f610810826107e7565b9050919050565b61082081610806565b811461082a575f5ffd5b50565b5f8135905061083b81610817565b92915050565b5f63ffffffff82169050919050565b61085981610841565b8114610863575f5ffd5b50565b5f8135905061087481610850565b92915050565b5f5ffd5b5f5ffd5b5f5ffd5b5f5f83601f84011261089b5761089a61087a565b5b8235905067ffffffffffffffff8111156108b8576108b761087e565b5b6020830191508360018202830111156108d4576108d3610882565b5b9250929050565b5f5f5f5f5f5f5f5f5f5f6101208b8d0312156108fa576108f9610759565b5b5f6109078d828e0161082d565b9a505060206109188d828e01610780565b99505060406109298d828e0161082d565b985050606061093a8d828e01610866565b975050608061094b8d828e01610780565b96505060a061095c8d828e01610780565b95505060c061096d8d828e01610780565b94505060e061097e8d828e01610780565b9350506101008b013567ffffffffffffffff8111156109a05761099f61075d565b5b6109ac8d828e01610886565b92509250509295989b9194979a5092959850565b7f4e487b71000000000000000000000000000000000000000000000000000000005f52602260045260245ffd5b5f6002820490506001821680610a0457607f821691505b602082108103610a1757610a166109c0565b5b50919050565b7f4e487b71000000000000000000000000000000000000000000000000000000005f52601160045260245ffd5b5f610a5482610761565b9150610a5f83610761565b9250828203905081811115610a7757610a76610a1d565b5b92915050565b5f610a8782610761565b9150610a9283610761565b9250828202610aa081610761565b91508282048414831517610ab757610ab6610a1d565b5b5092915050565b7f4e487b71000000000000000000000000000000000000000000000000000000005f52601260045260245ffd5b5f610af582610761565b9150610b0083610761565b925082610b1057610b0f610abe565b5b828204905092915050565b5f8160601b9050919050565b5f610b3182610b1b565b9050919050565b5f610b4282610b27565b9050919050565b610b5a610b5582610806565b610b38565b82525050565b5f819050919050565b610b7a610b7582610761565b610b60565b82525050565b5f8160e01b9050919050565b5f610b9682610b80565b9050919050565b610bae610ba982610841565b610b8c565b82525050565b5f610bbf828e610b49565b601482019150610bcf828d610b49565b601482019150610bdf828c610b69565b602082019150610bef828b610b49565b601482019150610bff828a610b69565b602082019150610c0f8289610b9d565b600482019150610c1f8288610b69565b602082019150610c2f8287610b69565b602082019150610c3f8286610b69565b602082019150610c4f8285610b69565b602082019150610c5f8284610b69565b6020820191508190509c9b505050505050505050505050565b5f81519050919050565b7f4e487b71000000000000000000000000000000000000000000000000000000005f52604160045260245ffd5b5f819050815f5260205f209050919050565b5f6020601f8301049050919050565b5f82821b905092915050565b5f60088302610d0b7fffffffffffffffffffffffffffffffffffffffffffffffffffffffffffffffff82610cd0565b610d158683610cd0565b95508019841693508086168417925050509392505050565b5f819050919050565b5f610d50610d4b610d4684610761565b610d2d565b610761565b9050919050565b5f819050919050565b610d6983610d36565b610d7d610d7582610d57565b848454610cdc565b825550505050565b5f5f905090565b610d94610d85565b610d9f818484610d60565b505050565b5b81811015610dc257610db75f82610d8c565b600181019050610da5565b5050565b601f821115610e0757610dd881610caf565b610de184610cc1565b81016020851015610df0578190505b610e04610dfc85610cc1565b830182610da4565b50505b505050565b5f82821c905092915050565b5f610e275f1984600802610e0c565b1980831691505092915050565b5f610e3f8383610e18565b9150826002028217905092915050565b610e5882610c78565b67ffffffffffffffff811115610e7157610e70610c82565b5b610e7b82546109ed565b610e86828285610dc6565b5f60209050601f831160018114610eb7575f8415610ea5578287015190505b610eaf8582610e34565b865550610f16565b601f198416610ec586610caf565b5f5b82811015610eec57848901518255600182019150602085019450602081019050610ec7565b86831015610f095784890151610f05601f891682610e18565b8355505b6001600288020188555050505b50505050505056fea2646970667358221220ca11323321cbb5f8bd741c70a0f9dfa61d8f30324b18cb401bcaeebe24d16e4d64736f6c634300081e0033","linkReferences":{}},"methodIdentifiers":{"createOrder(address,uint256,address,uint32,uint256,uint256,uint256,uint256,bytes)":"63a08b93","getCurrentReturnAmount(uint256)":"0e365e39"},"id":24}