{"abi":[{"type":"function","name":"createOrder","inputs":[{"name":"sourceToken","type":"address","internalType":"address"},{"name":"sourceAmount","type":"uint256","internalType":"uint256"},{"name":"destinationToken","type":"address","internalType":"address"},{"name":"destinationChainId","type":"uint32","internalType":"uint32"},{"name":"startReturnAmount","type":"uint256","internalType":"uint256"},{"name":"startTimestamp","type":"uint256","internalType":"uint256"},{"name":"minReturnAmount","type":"uint256","internalType":"uint256"},{"name":"expirationTimestamp","type":"uint256","internalType":"uint256"},{"name":"signature","type":"bytes","internalType":"bytes"},{"name":"orderId","type":"uint256","internalType":"uint256"}],"outputs":[],"stateMutability":"nonpayable"},{"type":"function","name":"getCurrentReturnAmount","inputs":[{"name":"orderId","type":"uint256","internalType":"uint256"}],"outputs":[{"name":"","type":"uint256","internalType":"uint256"}],"stateMutability":"view"},{"type":"event","name":"OrderCreated","inputs":[{"name":"orderId","type":"uint256","indexed":true,"internalType":"uint256"},{"name":"maker","type":"address","indexed":true,"internalType":"address"}],"anonymous":false},{"type":"error","name":"DoubleOrder","inputs":[]},{"type":"error","name":"InsufficientAllowance","inputs":[]},{"type":"error","name":"InsufficientBalance","inputs":[]},{"type":"error","name":"InvalidSignature","inputs":[]},{"type":"error","name":"InvalidTimestamp","inputs":[]},{"type":"error","name":"OrderExpired","inputs":[]},{"type":"error","name":"ReentrancyGuardReentrantCall","inputs":[]}],"bytecode":{"object":"0x6080604052348015600e575f5ffd5b5060015f8190555061150f806100235f395ff3fe608060405234801561000f575f5ffd5b5060043610610034575f3560e01c80630e365e39146100385780636e84119914610068575b5f5ffd5b610052600480360381019061004d9190610af2565b610084565b60405161005f9190610b2c565b60405180910390f35b610082600480360381019061007d9190610c39565b61036b565b005b5f5f60025f8481526020019081526020015f20604051806101800160405290815f8201548152602001600182015f9054906101000a900473ffffffffffffffffffffffffffffffffffffffff1673ffffffffffffffffffffffffffffffffffffffff1673ffffffffffffffffffffffffffffffffffffffff168152602001600282015f9054906101000a900473ffffffffffffffffffffffffffffffffffffffff1673ffffffffffffffffffffffffffffffffffffffff1673ffffffffffffffffffffffffffffffffffffffff16815260200160038201548152602001600482015f9054906101000a900473ffffffffffffffffffffffffffffffffffffffff1673ffffffffffffffffffffffffffffffffffffffff1673ffffffffffffffffffffffffffffffffffffffff1681526020016004820160149054906101000a900463ffffffff1663ffffffff1663ffffffff1681526020016004820160189054906101000a900463ffffffff1663ffffffff1663ffffffff1681526020016005820154815260200160068201548152602001600782015481526020016008820154815260200160098201805461023990610d5f565b80601f016020809104026020016040519081016040528092919081815260200182805461026590610d5f565b80156102b05780601f10610287576101008083540402835291602001916102b0565b820191905f5260205f20905b81548152906001019060200180831161029357829003601f168201915b50505050508152505090508061010001514210156102d5578060e00151915050610366565b80610140015142106102ef57806101200151915050610366565b5f816101000151426103019190610dbc565b90505f82610100015183610140015161031a9190610dbc565b90505f8361012001518460e001516103329190610dbc565b90505f8284836103429190610def565b61034c9190610e5d565b9050808560e0015161035e9190610dbc565b955050505050505b919050565b5f73ffffffffffffffffffffffffffffffffffffffff1660025f8381526020019081526020015f206001015f9054906101000a900473ffffffffffffffffffffffffffffffffffffffff1673ffffffffffffffffffffffffffffffffffffffff1614610403576040517f7d6d397700000000000000000000000000000000000000000000000000000000815260040160405180910390fd5b5f6040518061018001604052808381526020013373ffffffffffffffffffffffffffffffffffffffff1681526020018d73ffffffffffffffffffffffffffffffffffffffff1681526020018c81526020018b73ffffffffffffffffffffffffffffffffffffffff1681526020014663ffffffff1681526020018a63ffffffff16815260200189815260200188815260200187815260200186815260200185858080601f0160208091040260200160405190810160405280939291908181526020018383808284375f81840152601f19601f8201169050808301925050505050505081525090506104f2816106cd565b8060025f8481526020019081526020015f205f820151815f01556020820151816001015f6101000a81548173ffffffffffffffffffffffffffffffffffffffff021916908373ffffffffffffffffffffffffffffffffffffffff1602179055506040820151816002015f6101000a81548173ffffffffffffffffffffffffffffffffffffffff021916908373ffffffffffffffffffffffffffffffffffffffff160217905550606082015181600301556080820151816004015f6101000a81548173ffffffffffffffffffffffffffffffffffffffff021916908373ffffffffffffffffffffffffffffffffffffffff16021790555060a08201518160040160146101000a81548163ffffffff021916908363ffffffff16021790555060c08201518160040160186101000a81548163ffffffff021916908363ffffffff16021790555060e082015181600501556101008201518160060155610120820151816007015561014082015181600801556101608201518160090190816106779190611064565b509050503373ffffffffffffffffffffffffffffffffffffffff16827f4ceaea0569072c9203c8c195ffccdbca9851b9d0410f577878a6792f12ec9b5260405160405180910390a3505050505050505050505050565b80610140015142111561070c576040517fc56873ba00000000000000000000000000000000000000000000000000000000815260040160405180910390fd5b5f61071682610944565b9050816020015173ffffffffffffffffffffffffffffffffffffffff168173ffffffffffffffffffffffffffffffffffffffff1614610781576040517f8baa579f00000000000000000000000000000000000000000000000000000000815260040160405180910390fd5b8160600151826040015173ffffffffffffffffffffffffffffffffffffffff166370a0823184602001516040518263ffffffff1660e01b81526004016107c79190611142565b602060405180830381865afa1580156107e2573d5f5f3e3d5ffd5b505050506040513d601f19601f82011682018060405250810190610806919061116f565b101561083e576040517ff4d678b800000000000000000000000000000000000000000000000000000000815260040160405180910390fd5b8160600151826040015173ffffffffffffffffffffffffffffffffffffffff1663dd62ed3e8460200151306040518363ffffffff1660e01b815260040161088692919061119a565b602060405180830381865afa1580156108a1573d5f5f3e3d5ffd5b505050506040513d601f19601f820116820180604052508101906108c5919061116f565b10156108fd576040517f13be252b00000000000000000000000000000000000000000000000000000000815260040160405180910390fd5b81610140015182610100015110610940576040517fc56873ba00000000000000000000000000000000000000000000000000000000815260040160405180910390fd5b5050565b5f5f825f015183602001518460400151856060015186608001518760a001518860c001518960e001518a61010001518b61012001518c61014001516040516020016109999b9a9998979695949392919061125a565b6040516020818303038152906040528051906020012090505f816040516020016109c3919061139b565b6040516020818303038152906040528051906020012090505f84610160015190506041815114610a28576040517f08c379a0000000000000000000000000000000000000000000000000000000008152600401610a1f9061141a565b60405180910390fd5b5f5f5f602084015192506040840151915060608401515f1a9050601b8160ff161015610a5e57601b81610a5b9190611444565b90505b6001858285856040515f8152602001604052604051610a809493929190611496565b6020604051602081039080840390855afa158015610aa0573d5f5f3e3d5ffd5b505050602060405103519650505050505050919050565b5f5ffd5b5f5ffd5b5f819050919050565b610ad181610abf565b8114610adb575f5ffd5b50565b5f81359050610aec81610ac8565b92915050565b5f60208284031215610b0757610b06610ab7565b5b5f610b1484828501610ade565b91505092915050565b610b2681610abf565b82525050565b5f602082019050610b3f5f830184610b1d565b92915050565b5f73ffffffffffffffffffffffffffffffffffffffff82169050919050565b5f610b6e82610b45565b9050919050565b610b7e81610b64565b8114610b88575f5ffd5b50565b5f81359050610b9981610b75565b92915050565b5f63ffffffff82169050919050565b610bb781610b9f565b8114610bc1575f5ffd5b50565b5f81359050610bd281610bae565b92915050565b5f5ffd5b5f5ffd5b5f5ffd5b5f5f83601f840112610bf957610bf8610bd8565b5b8235905067ffffffffffffffff811115610c1657610c15610bdc565b5b602083019150836001820283011115610c3257610c31610be0565b5b9250929050565b5f5f5f5f5f5f5f5f5f5f5f6101408c8e031215610c5957610c58610ab7565b5b5f610c668e828f01610b8b565b9b50506020610c778e828f01610ade565b9a50506040610c888e828f01610b8b565b9950506060610c998e828f01610bc4565b9850506080610caa8e828f01610ade565b97505060a0610cbb8e828f01610ade565b96505060c0610ccc8e828f01610ade565b95505060e0610cdd8e828f01610ade565b9450506101008c013567ffffffffffffffff811115610cff57610cfe610abb565b5b610d0b8e828f01610be4565b9350935050610120610d1f8e828f01610ade565b9150509295989b509295989b9093969950565b7f4e487b71000000000000000000000000000000000000000000000000000000005f52602260045260245ffd5b5f6002820490506001821680610d7657607f821691505b602082108103610d8957610d88610d32565b5b50919050565b7f4e487b71000000000000000000000000000000000000000000000000000000005f52601160045260245ffd5b5f610dc682610abf565b9150610dd183610abf565b9250828203905081811115610de957610de8610d8f565b5b92915050565b5f610df982610abf565b9150610e0483610abf565b9250828202610e1281610abf565b91508282048414831517610e2957610e28610d8f565b5b5092915050565b7f4e487b71000000000000000000000000000000000000000000000000000000005f52601260045260245ffd5b5f610e6782610abf565b9150610e7283610abf565b925082610e8257610e81610e30565b5b828204905092915050565b5f81519050919050565b7f4e487b71000000000000000000000000000000000000000000000000000000005f52604160045260245ffd5b5f819050815f5260205f209050919050565b5f6020601f8301049050919050565b5f82821b905092915050565b5f60088302610f207fffffffffffffffffffffffffffffffffffffffffffffffffffffffffffffffff82610ee5565b610f2a8683610ee5565b95508019841693508086168417925050509392505050565b5f819050919050565b5f610f65610f60610f5b84610abf565b610f42565b610abf565b9050919050565b5f819050919050565b610f7e83610f4b565b610f92610f8a82610f6c565b848454610ef1565b825550505050565b5f5f905090565b610fa9610f9a565b610fb4818484610f75565b505050565b5b81811015610fd757610fcc5f82610fa1565b600181019050610fba565b5050565b601f82111561101c57610fed81610ec4565b610ff684610ed6565b81016020851015611005578190505b61101961101185610ed6565b830182610fb9565b50505b505050565b5f82821c905092915050565b5f61103c5f1984600802611021565b1980831691505092915050565b5f611054838361102d565b9150826002028217905092915050565b61106d82610e8d565b67ffffffffffffffff81111561108657611085610e97565b5b6110908254610d5f565b61109b828285610fdb565b5f60209050601f8311600181146110cc575f84156110ba578287015190505b6110c48582611049565b86555061112b565b601f1984166110da86610ec4565b5f5b82811015611101578489015182556001820191506020850194506020810190506110dc565b8683101561111e578489015161111a601f89168261102d565b8355505b6001600288020188555050505b505050505050565b61113c81610b64565b82525050565b5f6020820190506111555f830184611133565b92915050565b5f8151905061116981610ac8565b92915050565b5f6020828403121561118457611183610ab7565b5b5f6111918482850161115b565b91505092915050565b5f6040820190506111ad5f830185611133565b6111ba6020830184611133565b9392505050565b5f819050919050565b6111db6111d682610abf565b6111c1565b82525050565b5f8160601b9050919050565b5f6111f7826111e1565b9050919050565b5f611208826111ed565b9050919050565b61122061121b82610b64565b6111fe565b82525050565b5f8160e01b9050919050565b5f61123c82611226565b9050919050565b61125461124f82610b9f565b611232565b82525050565b5f611265828e6111ca565b602082019150611275828d61120f565b601482019150611285828c61120f565b601482019150611295828b6111ca565b6020820191506112a5828a61120f565b6014820191506112b58289611243565b6004820191506112c58288611243565b6004820191506112d582876111ca565b6020820191506112e582866111ca565b6020820191506112f582856111ca565b60208201915061130582846111ca565b6020820191508190509c9b505050505050505050505050565b5f81905092915050565b7f19457468657265756d205369676e6564204d6573736167653a0a3332000000005f82015250565b5f61135c601c8361131e565b915061136782611328565b601c82019050919050565b5f819050919050565b5f819050919050565b61139561139082611372565b61137b565b82525050565b5f6113a582611350565b91506113b18284611384565b60208201915081905092915050565b5f82825260208201905092915050565b7f496e76616c6964207369676e6174757265206c656e67746800000000000000005f82015250565b5f6114046018836113c0565b915061140f826113d0565b602082019050919050565b5f6020820190508181035f830152611431816113f8565b9050919050565b5f60ff82169050919050565b5f61144e82611438565b915061145983611438565b9250828201905060ff81111561147257611471610d8f565b5b92915050565b61148181611372565b82525050565b61149081611438565b82525050565b5f6080820190506114a95f830187611478565b6114b66020830186611487565b6114c36040830185611478565b6114d06060830184611478565b9594505050505056fea264697066735822122023cad20393797c67b3296c37451ac664003de26f596b9fcb77305068f52aa97f64736f6c634300081e0033","linkReferences":{}},"methodIdentifiers":{"createOrder(address,uint256,address,uint32,uint256,uint256,uint256,uint256,bytes,uint256)":"6e841199","getCurrentReturnAmount(uint256)":"0e365e39"},"id":23}