{"abi":[{"type":"function","name":"createOrder","inputs":[{"name":"sourceToken","type":"address","internalType":"address"},{"name":"sourceAmount","type":"uint256","internalType":"uint256"},{"name":"destinationToken","type":"address","internalType":"address"},{"name":"destinationChainId","type":"uint32","internalType":"uint32"},{"name":"startReturnAmount","type":"uint256","internalType":"uint256"},{"name":"startTimestamp","type":"uint256","internalType":"uint256"},{"name":"minReturnAmount","type":"uint256","internalType":"uint256"},{"name":"expirationTimestamp","type":"uint256","internalType":"uint256"},{"name":"signature","type":"bytes","internalType":"bytes"}],"outputs":[{"name":"","type":"uint256","internalType":"uint256"}],"stateMutability":"nonpayable"},{"type":"function","name":"getCurrentReturnAmount","inputs":[{"name":"orderId","type":"uint256","internalType":"uint256"}],"outputs":[{"name":"","type":"uint256","internalType":"uint256"}],"stateMutability":"view"},{"type":"event","name":"BridgeFinished","inputs":[{"name":"orderId","type":"uint256","indexed":true,"internalType":"uint256"}],"anonymous":false},{"type":"event","name":"BridgeStarted","inputs":[{"name":"orderId","type":"uint256","indexed":true,"internalType":"uint256"}],"anonymous":false},{"type":"event","name":"OrderCreated","inputs":[{"name":"orderId","type":"uint256","indexed":true,"internalType":"uint256"},{"name":"maker","type":"address","indexed":true,"internalType":"address"}],"anonymous":false},{"type":"error","name":"DoubleOrder","inputs":[]},{"type":"error","name":"InsufficientAllowance","inputs":[]},{"type":"error","name":"InsufficientBalance","inputs":[]},{"type":"error","name":"InvalidSignature","inputs":[]},{"type":"error","name":"InvalidTimestamp","inputs":[]},{"type":"error","name":"OrderExpired","inputs":[]},{"type":"error","name":"ReentrancyGuardReentrantCall","inputs":[]},{"type":"error","name":"tokenNotMapped","inputs":[]}],"bytecode":{"object":"0x6080604052348015600e575f5ffd5b5060015f8190555061165c806100235f395ff3fe608060405234801561000f575f5ffd5b5060043610610034575f3560e01c80630e365e391461003857806363a08b9314610068575b5f5ffd5b610052600480360381019061004d9190610b8f565b610098565b60405161005f9190610bc9565b60405180910390f35b610082600480360381019061007d9190610cd6565b61037f565b60405161008f9190610bc9565b60405180910390f35b5f5f60025f8481526020019081526020015f20604051806101800160405290815f8201548152602001600182015f9054906101000a900473ffffffffffffffffffffffffffffffffffffffff1673ffffffffffffffffffffffffffffffffffffffff1673ffffffffffffffffffffffffffffffffffffffff168152602001600282015f9054906101000a900473ffffffffffffffffffffffffffffffffffffffff1673ffffffffffffffffffffffffffffffffffffffff1673ffffffffffffffffffffffffffffffffffffffff16815260200160038201548152602001600482015f9054906101000a900473ffffffffffffffffffffffffffffffffffffffff1673ffffffffffffffffffffffffffffffffffffffff1673ffffffffffffffffffffffffffffffffffffffff1681526020016004820160149054906101000a900463ffffffff1663ffffffff1663ffffffff1681526020016004820160189054906101000a900463ffffffff1663ffffffff1663ffffffff1681526020016005820154815260200160068201548152602001600782015481526020016008820154815260200160098201805461024d90610de8565b80601f016020809104026020016040519081016040528092919081815260200182805461027990610de8565b80156102c45780601f1061029b576101008083540402835291602001916102c4565b820191905f5260205f20905b8154815290600101906020018083116102a757829003601f168201915b50505050508152505090508061010001514210156102e9578060e0015191505061037a565b80610140015142106103035780610120015191505061037a565b5f816101000151426103159190610e45565b90505f82610100015183610140015161032e9190610e45565b90505f8361012001518460e001516103469190610e45565b90505f8284836103569190610e78565b6103609190610ee6565b9050808560e001516103729190610e45565b955050505050505b919050565b5f4284116103b9576040517fc56873ba00000000000000000000000000000000000000000000000000000000815260040160405180910390fd5b8386106103f2576040517fb7d0949700000000000000000000000000000000000000000000000000000000815260040160405180910390fd5b5f338c8c8c468d8d8d8d8d426040516020016104189b9a99989796959493929190610faf565b604051602081830303815290604052805190602001205f1c90505f60015f8381526020019081526020015f20541461047c576040517f7d6d397700000000000000000000000000000000000000000000000000000000815260040160405180910390fd5b5f6040518061018001604052808381526020013373ffffffffffffffffffffffffffffffffffffffff1681526020018e73ffffffffffffffffffffffffffffffffffffffff1681526020018d81526020018c73ffffffffffffffffffffffffffffffffffffffff1681526020014663ffffffff1681526020018b63ffffffff1681526020018a815260200189815260200188815260200187815260200186868080601f0160208091040260200160405190810160405280939291908181526020018383808284375f81840152601f19601f82011690508083019250505050505050815250905061056b81610763565b508060025f8481526020019081526020015f205f820151815f01556020820151816001015f6101000a81548173ffffffffffffffffffffffffffffffffffffffff021916908373ffffffffffffffffffffffffffffffffffffffff1602179055506040820151816002015f6101000a81548173ffffffffffffffffffffffffffffffffffffffff021916908373ffffffffffffffffffffffffffffffffffffffff160217905550606082015181600301556080820151816004015f6101000a81548173ffffffffffffffffffffffffffffffffffffffff021916908373ffffffffffffffffffffffffffffffffffffffff16021790555060a08201518160040160146101000a81548163ffffffff021916908363ffffffff16021790555060c08201518160040160186101000a81548163ffffffff021916908363ffffffff16021790555060e082015181600501556101008201518160060155610120820151816007015561014082015181600801556101608201518160090190816106f1919061124a565b50905050600260015f8481526020019081526020015f20819055503373ffffffffffffffffffffffffffffffffffffffff16827f4ceaea0569072c9203c8c195ffccdbca9851b9d0410f577878a6792f12ec9b5260405160405180910390a381925050509a9950505050505050505050565b5f8161014001514211156107a3576040517fc56873ba00000000000000000000000000000000000000000000000000000000815260040160405180910390fd5b5f6107ad836109e1565b9050826020015173ffffffffffffffffffffffffffffffffffffffff168173ffffffffffffffffffffffffffffffffffffffff1614610818576040517f8baa579f00000000000000000000000000000000000000000000000000000000815260040160405180910390fd5b8260600151836040015173ffffffffffffffffffffffffffffffffffffffff166370a0823185602001516040518263ffffffff1660e01b815260040161085e9190611328565b602060405180830381865afa158015610879573d5f5f3e3d5ffd5b505050506040513d601f19601f8201168201806040525081019061089d9190611355565b10156108d5576040517ff4d678b800000000000000000000000000000000000000000000000000000000815260040160405180910390fd5b8260600151836040015173ffffffffffffffffffffffffffffffffffffffff1663dd62ed3e8560200151306040518363ffffffff1660e01b815260040161091d929190611380565b602060405180830381865afa158015610938573d5f5f3e3d5ffd5b505050506040513d601f19601f8201168201806040525081019061095c9190611355565b1015610994576040517f13be252b00000000000000000000000000000000000000000000000000000000815260040160405180910390fd5b826101400151836101000151106109d7576040517fc56873ba00000000000000000000000000000000000000000000000000000000815260040160405180910390fd5b6001915050919050565b5f5f825f015183602001518460400151856060015186608001518760a001518860c001518960e001518a61010001518b61012001518c6101400151604051602001610a369b9a999897969594939291906113a7565b6040516020818303038152906040528051906020012090505f81604051602001610a6091906114e8565b6040516020818303038152906040528051906020012090505f84610160015190506041815114610ac5576040517f08c379a0000000000000000000000000000000000000000000000000000000008152600401610abc90611567565b60405180910390fd5b5f5f5f602084015192506040840151915060608401515f1a9050601b8160ff161015610afb57601b81610af89190611591565b90505b6001858285856040515f8152602001604052604051610b1d94939291906115e3565b6020604051602081039080840390855afa158015610b3d573d5f5f3e3d5ffd5b505050602060405103519650505050505050919050565b5f5ffd5b5f5ffd5b5f819050919050565b610b6e81610b5c565b8114610b78575f5ffd5b50565b5f81359050610b8981610b65565b92915050565b5f60208284031215610ba457610ba3610b54565b5b5f610bb184828501610b7b565b91505092915050565b610bc381610b5c565b82525050565b5f602082019050610bdc5f830184610bba565b92915050565b5f73ffffffffffffffffffffffffffffffffffffffff82169050919050565b5f610c0b82610be2565b9050919050565b610c1b81610c01565b8114610c25575f5ffd5b50565b5f81359050610c3681610c12565b92915050565b5f63ffffffff82169050919050565b610c5481610c3c565b8114610c5e575f5ffd5b50565b5f81359050610c6f81610c4b565b92915050565b5f5ffd5b5f5ffd5b5f5ffd5b5f5f83601f840112610c9657610c95610c75565b5b8235905067ffffffffffffffff811115610cb357610cb2610c79565b5b602083019150836001820283011115610ccf57610cce610c7d565b5b9250929050565b5f5f5f5f5f5f5f5f5f5f6101208b8d031215610cf557610cf4610b54565b5b5f610d028d828e01610c28565b9a50506020610d138d828e01610b7b565b9950506040610d248d828e01610c28565b9850506060610d358d828e01610c61565b9750506080610d468d828e01610b7b565b96505060a0610d578d828e01610b7b565b95505060c0610d688d828e01610b7b565b94505060e0610d798d828e01610b7b565b9350506101008b013567ffffffffffffffff811115610d9b57610d9a610b58565b5b610da78d828e01610c81565b92509250509295989b9194979a5092959850565b7f4e487b71000000000000000000000000000000000000000000000000000000005f52602260045260245ffd5b5f6002820490506001821680610dff57607f821691505b602082108103610e1257610e11610dbb565b5b50919050565b7f4e487b71000000000000000000000000000000000000000000000000000000005f52601160045260245ffd5b5f610e4f82610b5c565b9150610e5a83610b5c565b9250828203905081811115610e7257610e71610e18565b5b92915050565b5f610e8282610b5c565b9150610e8d83610b5c565b9250828202610e9b81610b5c565b91508282048414831517610eb257610eb1610e18565b5b5092915050565b7f4e487b71000000000000000000000000000000000000000000000000000000005f52601260045260245ffd5b5f610ef082610b5c565b9150610efb83610b5c565b925082610f0b57610f0a610eb9565b5b828204905092915050565b5f8160601b9050919050565b5f610f2c82610f16565b9050919050565b5f610f3d82610f22565b9050919050565b610f55610f5082610c01565b610f33565b82525050565b5f819050919050565b610f75610f7082610b5c565b610f5b565b82525050565b5f8160e01b9050919050565b5f610f9182610f7b565b9050919050565b610fa9610fa482610c3c565b610f87565b82525050565b5f610fba828e610f44565b601482019150610fca828d610f44565b601482019150610fda828c610f64565b602082019150610fea828b610f44565b601482019150610ffa828a610f64565b60208201915061100a8289610f98565b60048201915061101a8288610f64565b60208201915061102a8287610f64565b60208201915061103a8286610f64565b60208201915061104a8285610f64565b60208201915061105a8284610f64565b6020820191508190509c9b505050505050505050505050565b5f81519050919050565b7f4e487b71000000000000000000000000000000000000000000000000000000005f52604160045260245ffd5b5f819050815f5260205f209050919050565b5f6020601f8301049050919050565b5f82821b905092915050565b5f600883026111067fffffffffffffffffffffffffffffffffffffffffffffffffffffffffffffffff826110cb565b61111086836110cb565b95508019841693508086168417925050509392505050565b5f819050919050565b5f61114b61114661114184610b5c565b611128565b610b5c565b9050919050565b5f819050919050565b61116483611131565b61117861117082611152565b8484546110d7565b825550505050565b5f5f905090565b61118f611180565b61119a81848461115b565b505050565b5b818110156111bd576111b25f82611187565b6001810190506111a0565b5050565b601f821115611202576111d3816110aa565b6111dc846110bc565b810160208510156111eb578190505b6111ff6111f7856110bc565b83018261119f565b50505b505050565b5f82821c905092915050565b5f6112225f1984600802611207565b1980831691505092915050565b5f61123a8383611213565b9150826002028217905092915050565b61125382611073565b67ffffffffffffffff81111561126c5761126b61107d565b5b6112768254610de8565b6112818282856111c1565b5f60209050601f8311600181146112b2575f84156112a0578287015190505b6112aa858261122f565b865550611311565b601f1984166112c0866110aa565b5f5b828110156112e7578489015182556001820191506020850194506020810190506112c2565b868310156113045784890151611300601f891682611213565b8355505b6001600288020188555050505b505050505050565b61132281610c01565b82525050565b5f60208201905061133b5f830184611319565b92915050565b5f8151905061134f81610b65565b92915050565b5f6020828403121561136a57611369610b54565b5b5f61137784828501611341565b91505092915050565b5f6040820190506113935f830185611319565b6113a06020830184611319565b9392505050565b5f6113b2828e610f64565b6020820191506113c2828d610f44565b6014820191506113d2828c610f44565b6014820191506113e2828b610f64565b6020820191506113f2828a610f44565b6014820191506114028289610f98565b6004820191506114128288610f98565b6004820191506114228287610f64565b6020820191506114328286610f64565b6020820191506114428285610f64565b6020820191506114528284610f64565b6020820191508190509c9b505050505050505050505050565b5f81905092915050565b7f19457468657265756d205369676e6564204d6573736167653a0a3332000000005f82015250565b5f6114a9601c8361146b565b91506114b482611475565b601c82019050919050565b5f819050919050565b5f819050919050565b6114e26114dd826114bf565b6114c8565b82525050565b5f6114f28261149d565b91506114fe82846114d1565b60208201915081905092915050565b5f82825260208201905092915050565b7f496e76616c6964207369676e6174757265206c656e67746800000000000000005f82015250565b5f61155160188361150d565b915061155c8261151d565b602082019050919050565b5f6020820190508181035f83015261157e81611545565b9050919050565b5f60ff82169050919050565b5f61159b82611585565b91506115a683611585565b9250828201905060ff8111156115bf576115be610e18565b5b92915050565b6115ce816114bf565b82525050565b6115dd81611585565b82525050565b5f6080820190506115f65f8301876115c5565b61160360208301866115d4565b61161060408301856115c5565b61161d60608301846115c5565b9594505050505056fea26469706673582212201ccd34d8a905d024dbb58981be565b3f6dcc508580a23f25c26bc0a11e8b7bef64736f6c634300081e0033","linkReferences":{}},"methodIdentifiers":{"createOrder(address,uint256,address,uint32,uint256,uint256,uint256,uint256,bytes)":"63a08b93","getCurrentReturnAmount(uint256)":"0e365e39"},"id":23}