{"abi":[{"type":"constructor","inputs":[{"name":"_endpoint","type":"address","internalType":"address"}],"stateMutability":"nonpayable"},{"type":"function","name":"createOrder","inputs":[{"name":"sourceToken","type":"address","internalType":"address"},{"name":"sourceAmount","type":"uint256","internalType":"uint256"},{"name":"destinationToken","type":"address","internalType":"address"},{"name":"destinationChainId","type":"uint32","internalType":"uint32"},{"name":"startReturnAmount","type":"uint256","internalType":"uint256"},{"name":"minReturnAmount","type":"uint256","internalType":"uint256"},{"name":"minRefill","type":"uint256","internalType":"uint256"},{"name":"startTimestamp","type":"uint256","internalType":"uint256"},{"name":"expirationTimestamp","type":"uint256","internalType":"uint256"},{"name":"signature","type":"bytes","internalType":"bytes"},{"name":"secretHash","type":"bytes","internalType":"bytes"},{"name":"orderId","type":"uint256","internalType":"uint256"}],"outputs":[],"stateMutability":"payable"},{"type":"function","name":"destinationAddress","inputs":[],"outputs":[{"name":"","type":"bytes","internalType":"bytes"}],"stateMutability":"view"},{"type":"function","name":"endpoint","inputs":[],"outputs":[{"name":"","type":"address","internalType":"contract ILayerZeroEndpoint"}],"stateMutability":"view"},{"type":"function","name":"fillOrder","inputs":[{"name":"orderId","type":"uint256","internalType":"uint256"},{"name":"isFillFull","type":"bool","internalType":"bool"},{"name":"refillAmount","type":"uint256","internalType":"uint256"}],"outputs":[],"stateMutability":"payable"},{"type":"function","name":"getCurrentReturnAmount","inputs":[{"name":"orderId","type":"uint256","internalType":"uint256"}],"outputs":[{"name":"","type":"uint256","internalType":"uint256"}],"stateMutability":"view"},{"type":"function","name":"lzReceive","inputs":[{"name":"_srcChainId","type":"uint16","internalType":"uint16"},{"name":"_from","type":"bytes","internalType":"bytes"},{"name":"_nonce","type":"uint64","internalType":"uint64"},{"name":"_payload","type":"bytes","internalType":"bytes"}],"outputs":[],"stateMutability":"nonpayable"},{"type":"function","name":"messageCount","inputs":[],"outputs":[{"name":"","type":"uint16","internalType":"uint16"}],"stateMutability":"view"},{"type":"function","name":"setDestinationContract","inputs":[{"name":"destination","type":"address","internalType":"address"}],"outputs":[],"stateMutability":"nonpayable"},{"type":"event","name":"LockedEscrow","inputs":[{"name":"sender","type":"address","indexed":true,"internalType":"address"},{"name":"amount","type":"uint256","indexed":false,"internalType":"uint256"},{"name":"receiver","type":"address","indexed":true,"internalType":"address"}],"anonymous":false},{"type":"event","name":"OrderCreated","inputs":[{"name":"orderId","type":"bytes32","indexed":true,"internalType":"bytes32"}],"anonymous":false},{"type":"event","name":"OrderRefill","inputs":[{"name":"orderId","type":"bytes32","indexed":true,"internalType":"bytes32"},{"name":"filledAmount","type":"uint256","indexed":false,"internalType":"uint256"}],"anonymous":false},{"type":"event","name":"ReceiveMsg","inputs":[{"name":"srcChainId","type":"uint16","indexed":false,"internalType":"uint16"},{"name":"from","type":"address","indexed":false,"internalType":"address"},{"name":"messageCount","type":"uint16","indexed":false,"internalType":"uint16"},{"name":"payload","type":"bytes","indexed":false,"internalType":"bytes"}],"anonymous":false},{"type":"error","name":"DoubleOrder","inputs":[]},{"type":"error","name":"InsufficientAllowance","inputs":[]},{"type":"error","name":"InsufficientBalance","inputs":[]},{"type":"error","name":"InvalidRequestedAmount","inputs":[]},{"type":"error","name":"InvalidSignature","inputs":[]},{"type":"error","name":"InvalidSignatureLength","inputs":[]},{"type":"error","name":"InvalidTimestamp","inputs":[]},{"type":"error","name":"OrderAlreadyFilled","inputs":[]},{"type":"error","name":"OrderExpired","inputs":[]},{"type":"error","name":"ReentrancyGuardReentrantCall","inputs":[]}],"bytecode":{"object":"0x608034607457601f61138c38819003918201601f19168301916001600160401b03831184841017607857808492602094604052833981010312607457516001600160a01b0381169081900360745760015f55600280546001600160a01b0319169190911790556040516112ff908161008d8239f35b5f80fd5b634e487b7160e01b5f52604160045260245ffdfe60806040526004361015610011575f80fd5b5f3560e01c80621d356714610d005780630e365e3914610cda5780633dbcc8d114610cb95780635e280f1114610c915780637ad5146914610b1c578063ca32546914610a4d578063eb0cc1741461057d5763f2b330f314610070575f80fd5b61018036600319011261057957610085610f5b565b602435906044356001600160a01b038116908190036105795760643563ffffffff8116809103610579576101243567ffffffffffffffff8111610579576100d090369060040161106d565b90946101443567ffffffffffffffff8111610579576100f390369060040161106d565b96906100fd61128b565b610164355f52600160205260018060a01b03600160405f2001541661052a576101c1906040519861012d8a610eb8565b610164358a523360208b01526001600160a01b0390981660408a0190815260608a0185815260808b0195865260a08b019889524663ffffffff1660c08c0190815260e08c019889526084356101008d015260a4356101208d015260c4356101408d015260e4356101608d0152610104356101808d01529199919690946101b4913691610ef7565b6101a08b01523691610ef7565b6101c08801525f6101e08801819052610164358152600160208181526040909220895181559189015190820180546001600160a01b03199081166001600160a01b039384161790915597516002830180549099169082161790975590516003820155905160048201559251600584018054925193516001600160e01b0319909316919095161760a09290921b63ffffffff60a01b169190911760c09190911b63ffffffff60c01b16179091556101008201516006820155610120820151600782015561014082015160088201556101608201516009820155610180820151600a8201556101a08201518051909290600b83019067ffffffffffffffff8111610465576102cd8254610f71565b601f81116104e5575b50602094601f8211600114610484579481929394955f92610479575b50508160011b915f199060031b1c19161790555b600c8201916101c082015192835167ffffffffffffffff81116104655761032d8254610f71565b601f8111610420575b506020601f82116001146103b6579080600d9493926101e096975f926103ab575b50508160011b915f199060031b1c19161790555b01910151151560ff80198354169116179055610164357f918554b6bd6e2895ce6553de5de0e1a69db5289aa0e4fe193a0dcd1f143474775f80a260015f55005b015190505f80610357565b601f19821695835f52815f20965f5b8181106104085750966001928492600d9796956101e0999a106103f0575b505050811b01905561036b565b01515f1960f88460031b161c191690555f80806103e3565b838301518955600190980197602093840193016103c5565b825f5260205f20601f830160051c8101916020841061045b575b601f0160051c01905b8181106104505750610336565b5f8155600101610443565b909150819061043a565b634e487b7160e01b5f52604160045260245ffd5b015190505f806102f2565b601f19821695835f52805f20915f5b8881106104cd575083600195969798106104b5575b505050811b019055610306565b01515f1960f88460031b161c191690555f80806104a8565b91926020600181928685015181550194019201610493565b825f5260205f20601f830160051c81019160208410610520575b601f0160051c01905b81811061051557506102d6565b5f8155600101610508565b90915081906104ff565b60405162461bcd60e51b815260206004820152602160248201527f446f75626c654f726465723a206f7264657220616c72656164792065786973746044820152607360f81b6064820152608490fd5b5f80fd5b606036600319011261057957600435602435908115158092036105795760443590805f52600160205260018060a01b03600160405f2001541615610a1157805f52600160205260405f20604051906105d482610eb8565b8054825260018060a01b03600182015416602083015260018060a01b036002820154166040830152600381015460608301526004810154608083015263ffffffff600582015460018060a01b03811660a0850152818160a01c1660c085015260c01c1660e083015260068101546101008301526007810154610120830152600881015461014083015260098101549161016081019283526101e060ff600d600a85015494610180850195865261068c600b8201610fa9565b6101a086015261069e600c8201610fa9565b6101c0860152015416151591015251804211159182610a06575b5050156109b5576106c761128b565b805f52600160205260405f20916004830190815494851561097957600114908115828161096b575b1561092d576106fd856110ed565b9290610924575b15610904575093805b60058501546001600160a01b03169173eeeeeeeeeeeeeeeeeeeeeeeeeeeeeeeeeeeeeeee83146108ad576040516370a0823160e01b8152336004820152602081602481875afa801561086b5788915f91610876575b50936107746020926044961015611248565b604051636eb1769f60e11b815233600482015230602482015294859182905afa801561086b5787935f91610832575b506107b7936107b29110611248565b6110af565b809155610802575b50600101546040519182526001600160a01b03169033907f3a86ba9d7b349fcd95ac419db6985ebd6f2f6aabe67e8763977adabb91c304ed90602090a360015f55005b7fc94db248be0d06eb7cb2972a7247282dd67a564280747134310420f0c57930da6020604051858152a2826107bf565b9350506020833d602011610863575b8161084e60209383610ed5565b810103126105795791518692906107b76107a3565b3d9150610841565b6040513d5f823e3d90fd5b9150506020813d6020116108a5575b8161089260209383610ed5565b8101031261057957518790610774610762565b3d9150610885565b91508534106108bf576107b7916110af565b60405162461bcd60e51b815260206004820152601960248201527f6e6f7420656e6f756768206e61746976652062616c616e6365000000000000006044820152606490fd5b8061091961091f9297936003880154926110cf565b906110bc565b61070d565b50818111610704565b60405162461bcd60e51b81526020600482015260166024820152751a5b9d985a5b19081c995c5d595cdd195908199a5b1b60521b6044820152606490fd5b5060088601548210156106ef565b60405162461bcd60e51b81526020600482015260146024820152731bdc99195c88185b1c9958591e48199a5b1b195960621b6044820152606490fd5b60405162461bcd60e51b815260206004820152602360248201527f4f726465722065787069726564206f7220696e76616c69642074696d657374616044820152626d707360e81b6064820152608490fd5b5110905084806106b8565b60405162461bcd60e51b815260206004820152601460248201527313dc99195c8819195bd95cdb89dd08195e1a5cdd60621b6044820152606490fd5b34610579575f366003190112610579576040515f600354610a6d81610f71565b8084529060018116908115610af85750600114610aad575b610aa983610a9581850382610ed5565b604051918291602083526020830190611049565b0390f35b60035f9081525f5160206112aa5f395f51905f52939250905b808210610ade57509091508101602001610a95610a85565b919260018160209254838588010152019101909291610ac6565b60ff191660208086019190915291151560051b84019091019150610a959050610a85565b3461057957602036600319011261057957610b35610f5b565b604051906bffffffffffffffffffffffff199060601b16602082015260148152610b60603482610ed5565b805167ffffffffffffffff811161046557610b7c600354610f71565b601f8111610c29575b50602091601f8211600114610bc1579181925f92610bb6575b50508160011b915f199060031b1c1916176003555f80f35b015190508280610b9e565b601f1982169260035f525f5160206112aa5f395f51905f52915f5b858110610c1157508360019510610bf9575b505050811b01600355005b01515f1960f88460031b161c19169055828080610bee565b91926020600181928685015181550194019201610bdc565b60035f52601f820160051c5f5160206112aa5f395f51905f52019060208310610c7c575b601f0160051c5f5160206112aa5f395f51905f5201905b818110610c715750610b85565b5f8155600101610c64565b5f5160206112aa5f395f51905f529150610c4d565b34610579575f366003190112610579576002546040516001600160a01b039091168152602090f35b34610579575f36600319011261057957602061ffff60045416604051908152f35b34610579576020366003190112610579576020610cf86004356110ed565b604051908152f35b346105795760803660031901126105795760043561ffff81168091036105795760243567ffffffffffffffff811161057957610d40903690600401610f3d565b5060443567ffffffffffffffff8116036105795760643567ffffffffffffffff811161057957610d74903690600401610f3d565b6002549091906001600160a01b03163303610e7d57608082805181010312610579576020906040830151610daa6060850161109b565b7f3a86ba9d7b349fcd95ac419db6985ebd6f2f6aabe67e8763977adabb91c304ed6001600160a01b03610ddf6080880161109b565b60405194855216946001600160a01b0390921692859290a360045461ffff81169361ffff8514610e695784610e649261ffff60017fc051b165d1bbe7c2ffd850d6890c1772327845296dbf4816c580c449ffe2e6669801169061ffff191617600455604051948594855260208501526040840152608060608401526080830190611049565b0390a1005b634e487b7160e01b5f52601160045260245ffd5b60405162461bcd60e51b815260206004820152601360248201527210d85b1b195c881b9bdd08195b991c1bda5b9d606a1b6044820152606490fd5b610200810190811067ffffffffffffffff82111761046557604052565b90601f8019910116810190811067ffffffffffffffff82111761046557604052565b92919267ffffffffffffffff82116104655760405191610f21601f8201601f191660200184610ed5565b829481845281830111610579578281602093845f960137010152565b9080601f8301121561057957816020610f5893359101610ef7565b90565b600435906001600160a01b038216820361057957565b90600182811c92168015610f9f575b6020831014610f8b57565b634e487b7160e01b5f52602260045260245ffd5b91607f1691610f80565b9060405191825f825492610fbc84610f71565b80845293600181169081156110275750600114610fe3575b50610fe192500383610ed5565b565b90505f9291925260205f20905f915b81831061100b575050906020610fe1928201015f610fd4565b6020919350806001915483858901015201910190918492610ff2565b905060209250610fe194915060ff191682840152151560051b8201015f610fd4565b805180835260209291819084018484015e5f828201840152601f01601f1916010190565b9181601f840112156105795782359167ffffffffffffffff8311610579576020838186019501011161057957565b51906001600160a01b038216820361057957565b91908203918211610e6957565b81810292918115918404141715610e6957565b81156110d9570490565b634e487b7160e01b5f52601260045260245ffd5b5f52600160205260405f206040519061110582610eb8565b8054825260018060a01b03600182015416602083015260018060a01b036002820154166040830152600381015460608301526004810154608083015263ffffffff600582015460018060a01b03811660a0850152818160a01c1660c085015260c01c1660e083015260068101549061010083019182526007810154926101208101938452600882015461014082015260098201549061016081019182526101e060ff600d600a8601549561018085019687526111c3600b8201610fa9565b6101a08601526111d5600c8201610fa9565b6101c08601520154161515910152805180421061123f578251421015611237576112309261122661121b610f58979461121161122b95426110af565b93519051906110af565b9386519051906110af565b6110bc565b6110cf565b90516110af565b505050505190565b50505090505190565b1561124f57565b60405162461bcd60e51b8152602060048201526014602482015273696e73756666696365696e742062616c616e636560601b6044820152606490fd5b60025f541461129a5760025f55565b633ee5aeb560e01b5f5260045ffdfec2575a0e9e593c00f959f8c92f12db2869c3395a3b0502d05e2516446f71f85ba26469706673582212200b65a57e0d4ba79b421a4a7db7aabf39f30d6ec3f6f5fbe4347082d5537406a364736f6c634300081e0033","linkReferences":{}},"methodIdentifiers":{"createOrder(address,uint256,address,uint32,uint256,uint256,uint256,uint256,uint256,bytes,bytes,uint256)":"f2b330f3","destinationAddress()":"ca325469","endpoint()":"5e280f11","fillOrder(uint256,bool,uint256)":"eb0cc174","getCurrentReturnAmount(uint256)":"0e365e39","lzReceive(uint16,bytes,uint64,bytes)":"001d3567","messageCount()":"3dbcc8d1","setDestinationContract(address)":"7ad51469"},"id":23}