{"abi":[{"type":"function","name":"createOrder","inputs":[{"name":"sourceToken","type":"address","internalType":"address"},{"name":"sourceAmount","type":"uint256","internalType":"uint256"},{"name":"destinationToken","type":"address","internalType":"address"},{"name":"destinationChainId","type":"uint32","internalType":"uint32"},{"name":"startReturnAmount","type":"uint256","internalType":"uint256"},{"name":"startTimestamp","type":"uint256","internalType":"uint256"},{"name":"minReturnAmount","type":"uint256","internalType":"uint256"},{"name":"expirationTimestamp","type":"uint256","internalType":"uint256"},{"name":"signature","type":"bytes","internalType":"bytes"},{"name":"orderId","type":"uint256","internalType":"uint256"}],"outputs":[],"stateMutability":"nonpayable"},{"type":"function","name":"getCurrentReturnAmount","inputs":[{"name":"orderId","type":"uint256","internalType":"uint256"}],"outputs":[{"name":"","type":"uint256","internalType":"uint256"}],"stateMutability":"view"},{"type":"event","name":"OrderCreated","inputs":[{"name":"orderId","type":"uint256","indexed":true,"internalType":"uint256"},{"name":"maker","type":"address","indexed":true,"internalType":"address"}],"anonymous":false},{"type":"error","name":"DoubleOrder","inputs":[]},{"type":"error","name":"InsufficientAllowance","inputs":[]},{"type":"error","name":"InsufficientBalance","inputs":[]},{"type":"error","name":"InvalidSignature","inputs":[]},{"type":"error","name":"InvalidTimestamp","inputs":[]},{"type":"error","name":"OrderExpired","inputs":[]},{"type":"error","name":"ReentrancyGuardReentrantCall","inputs":[]}],"bytecode":{"object":"0x6080604052348015600e575f5ffd5b5060015f8190555061100e806100235f395ff3fe608060405234801561000f575f5ffd5b5060043610610034575f3560e01c80630e365e39146100385780636e84119914610068575b5f5ffd5b610052600480360381019061004d9190610909565b610084565b60405161005f9190610943565b60405180910390f35b610082600480360381019061007d9190610a50565b61036b565b005b5f5f60025f8481526020019081526020015f20604051806101800160405290815f8201548152602001600182015f9054906101000a900473ffffffffffffffffffffffffffffffffffffffff1673ffffffffffffffffffffffffffffffffffffffff1673ffffffffffffffffffffffffffffffffffffffff168152602001600282015f9054906101000a900473ffffffffffffffffffffffffffffffffffffffff1673ffffffffffffffffffffffffffffffffffffffff1673ffffffffffffffffffffffffffffffffffffffff16815260200160038201548152602001600482015f9054906101000a900473ffffffffffffffffffffffffffffffffffffffff1673ffffffffffffffffffffffffffffffffffffffff1673ffffffffffffffffffffffffffffffffffffffff1681526020016004820160149054906101000a900463ffffffff1663ffffffff1663ffffffff1681526020016004820160189054906101000a900463ffffffff1663ffffffff1663ffffffff1681526020016005820154815260200160068201548152602001600782015481526020016008820154815260200160098201805461023990610b76565b80601f016020809104026020016040519081016040528092919081815260200182805461026590610b76565b80156102b05780601f10610287576101008083540402835291602001916102b0565b820191905f5260205f20905b81548152906001019060200180831161029357829003601f168201915b50505050508152505090508061010001514210156102d5578060e00151915050610366565b80610140015142106102ef57806101200151915050610366565b5f816101000151426103019190610bd3565b90505f82610100015183610140015161031a9190610bd3565b90505f8361012001518460e001516103329190610bd3565b90505f8284836103429190610c06565b61034c9190610c74565b9050808560e0015161035e9190610bd3565b955050505050505b919050565b5f73ffffffffffffffffffffffffffffffffffffffff1660025f8381526020019081526020015f206001015f9054906101000a900473ffffffffffffffffffffffffffffffffffffffff1673ffffffffffffffffffffffffffffffffffffffff1614610403576040517f7d6d397700000000000000000000000000000000000000000000000000000000815260040160405180910390fd5b5f6040518061018001604052808381526020013373ffffffffffffffffffffffffffffffffffffffff1681526020018d73ffffffffffffffffffffffffffffffffffffffff1681526020018c81526020018b73ffffffffffffffffffffffffffffffffffffffff1681526020014663ffffffff1681526020018a63ffffffff16815260200189815260200188815260200187815260200186815260200185858080601f0160208091040260200160405190810160405280939291908181526020018383808284375f81840152601f19601f8201169050808301925050505050505081525090506104f2816106cd565b8060025f8481526020019081526020015f205f820151815f01556020820151816001015f6101000a81548173ffffffffffffffffffffffffffffffffffffffff021916908373ffffffffffffffffffffffffffffffffffffffff1602179055506040820151816002015f6101000a81548173ffffffffffffffffffffffffffffffffffffffff021916908373ffffffffffffffffffffffffffffffffffffffff160217905550606082015181600301556080820151816004015f6101000a81548173ffffffffffffffffffffffffffffffffffffffff021916908373ffffffffffffffffffffffffffffffffffffffff16021790555060a08201518160040160146101000a81548163ffffffff021916908363ffffffff16021790555060c08201518160040160186101000a81548163ffffffff021916908363ffffffff16021790555060e082015181600501556101008201518160060155610120820151816007015561014082015181600801556101608201518160090190816106779190610e7b565b509050503373ffffffffffffffffffffffffffffffffffffffff16827f4ceaea0569072c9203c8c195ffccdbca9851b9d0410f577878a6792f12ec9b5260405160405180910390a3505050505050505050505050565b80610140015142111561070c576040517fc56873ba00000000000000000000000000000000000000000000000000000000815260040160405180910390fd5b8060600151816040015173ffffffffffffffffffffffffffffffffffffffff166370a0823183602001516040518263ffffffff1660e01b81526004016107529190610f59565b602060405180830381865afa15801561076d573d5f5f3e3d5ffd5b505050506040513d601f19601f820116820180604052508101906107919190610f86565b10156107c9576040517ff4d678b800000000000000000000000000000000000000000000000000000000815260040160405180910390fd5b8060600151816040015173ffffffffffffffffffffffffffffffffffffffff1663dd62ed3e8360200151306040518363ffffffff1660e01b8152600401610811929190610fb1565b602060405180830381865afa15801561082c573d5f5f3e3d5ffd5b505050506040513d601f19601f820116820180604052508101906108509190610f86565b1015610888576040517f13be252b00000000000000000000000000000000000000000000000000000000815260040160405180910390fd5b806101400151816101000151106108cb576040517fc56873ba00000000000000000000000000000000000000000000000000000000815260040160405180910390fd5b50565b5f5ffd5b5f5ffd5b5f819050919050565b6108e8816108d6565b81146108f2575f5ffd5b50565b5f81359050610903816108df565b92915050565b5f6020828403121561091e5761091d6108ce565b5b5f61092b848285016108f5565b91505092915050565b61093d816108d6565b82525050565b5f6020820190506109565f830184610934565b92915050565b5f73ffffffffffffffffffffffffffffffffffffffff82169050919050565b5f6109858261095c565b9050919050565b6109958161097b565b811461099f575f5ffd5b50565b5f813590506109b08161098c565b92915050565b5f63ffffffff82169050919050565b6109ce816109b6565b81146109d8575f5ffd5b50565b5f813590506109e9816109c5565b92915050565b5f5ffd5b5f5ffd5b5f5ffd5b5f5f83601f840112610a1057610a0f6109ef565b5b8235905067ffffffffffffffff811115610a2d57610a2c6109f3565b5b602083019150836001820283011115610a4957610a486109f7565b5b9250929050565b5f5f5f5f5f5f5f5f5f5f5f6101408c8e031215610a7057610a6f6108ce565b5b5f610a7d8e828f016109a2565b9b50506020610a8e8e828f016108f5565b9a50506040610a9f8e828f016109a2565b9950506060610ab08e828f016109db565b9850506080610ac18e828f016108f5565b97505060a0610ad28e828f016108f5565b96505060c0610ae38e828f016108f5565b95505060e0610af48e828f016108f5565b9450506101008c013567ffffffffffffffff811115610b1657610b156108d2565b5b610b228e828f016109fb565b9350935050610120610b368e828f016108f5565b9150509295989b509295989b9093969950565b7f4e487b71000000000000000000000000000000000000000000000000000000005f52602260045260245ffd5b5f6002820490506001821680610b8d57607f821691505b602082108103610ba057610b9f610b49565b5b50919050565b7f4e487b71000000000000000000000000000000000000000000000000000000005f52601160045260245ffd5b5f610bdd826108d6565b9150610be8836108d6565b9250828203905081811115610c0057610bff610ba6565b5b92915050565b5f610c10826108d6565b9150610c1b836108d6565b9250828202610c29816108d6565b91508282048414831517610c4057610c3f610ba6565b5b5092915050565b7f4e487b71000000000000000000000000000000000000000000000000000000005f52601260045260245ffd5b5f610c7e826108d6565b9150610c89836108d6565b925082610c9957610c98610c47565b5b828204905092915050565b5f81519050919050565b7f4e487b71000000000000000000000000000000000000000000000000000000005f52604160045260245ffd5b5f819050815f5260205f209050919050565b5f6020601f8301049050919050565b5f82821b905092915050565b5f60088302610d377fffffffffffffffffffffffffffffffffffffffffffffffffffffffffffffffff82610cfc565b610d418683610cfc565b95508019841693508086168417925050509392505050565b5f819050919050565b5f610d7c610d77610d72846108d6565b610d59565b6108d6565b9050919050565b5f819050919050565b610d9583610d62565b610da9610da182610d83565b848454610d08565b825550505050565b5f5f905090565b610dc0610db1565b610dcb818484610d8c565b505050565b5b81811015610dee57610de35f82610db8565b600181019050610dd1565b5050565b601f821115610e3357610e0481610cdb565b610e0d84610ced565b81016020851015610e1c578190505b610e30610e2885610ced565b830182610dd0565b50505b505050565b5f82821c905092915050565b5f610e535f1984600802610e38565b1980831691505092915050565b5f610e6b8383610e44565b9150826002028217905092915050565b610e8482610ca4565b67ffffffffffffffff811115610e9d57610e9c610cae565b5b610ea78254610b76565b610eb2828285610df2565b5f60209050601f831160018114610ee3575f8415610ed1578287015190505b610edb8582610e60565b865550610f42565b601f198416610ef186610cdb565b5f5b82811015610f1857848901518255600182019150602085019450602081019050610ef3565b86831015610f355784890151610f31601f891682610e44565b8355505b6001600288020188555050505b505050505050565b610f538161097b565b82525050565b5f602082019050610f6c5f830184610f4a565b92915050565b5f81519050610f80816108df565b92915050565b5f60208284031215610f9b57610f9a6108ce565b5b5f610fa884828501610f72565b91505092915050565b5f604082019050610fc45f830185610f4a565b610fd16020830184610f4a565b939250505056fea2646970667358221220ef40ee7b5a9a9a17717838b4a152a73331660e20c1cae1d04a7b91ad294532e264736f6c634300081e0033","linkReferences":{}},"methodIdentifiers":{"createOrder(address,uint256,address,uint32,uint256,uint256,uint256,uint256,bytes,uint256)":"6e841199","getCurrentReturnAmount(uint256)":"0e365e39"},"id":23}