{"abi":[{"type":"constructor","inputs":[{"name":"_endpoint","type":"address","internalType":"address"}],"stateMutability":"nonpayable"},{"type":"function","name":"createOrder","inputs":[{"name":"sourceToken","type":"address","internalType":"address"},{"name":"sourceAmount","type":"uint256","internalType":"uint256"},{"name":"destinationToken","type":"address","internalType":"address"},{"name":"destinationChainId","type":"uint32","internalType":"uint32"},{"name":"startReturnAmount","type":"uint256","internalType":"uint256"},{"name":"startTimestamp","type":"uint256","internalType":"uint256"},{"name":"minReturnAmount","type":"uint256","internalType":"uint256"},{"name":"expirationTimestamp","type":"uint256","internalType":"uint256"},{"name":"signature","type":"bytes","internalType":"bytes"},{"name":"secretHash","type":"bytes","internalType":"bytes"},{"name":"orderId","type":"uint256","internalType":"uint256"}],"outputs":[],"stateMutability":"payable"},{"type":"function","name":"destinationAddress","inputs":[],"outputs":[{"name":"","type":"bytes","internalType":"bytes"}],"stateMutability":"view"},{"type":"function","name":"endpoint","inputs":[],"outputs":[{"name":"","type":"address","internalType":"contract ILayerZeroEndpoint"}],"stateMutability":"view"},{"type":"function","name":"fillOrder","inputs":[{"name":"orderId","type":"uint256","internalType":"uint256"},{"name":"isFull","type":"bool","internalType":"bool"},{"name":"requestedAmount","type":"uint256","internalType":"uint256"}],"outputs":[],"stateMutability":"payable"},{"type":"function","name":"getCurrentReturnAmount","inputs":[{"name":"orderId","type":"uint256","internalType":"uint256"}],"outputs":[{"name":"","type":"uint256","internalType":"uint256"}],"stateMutability":"view"},{"type":"function","name":"lockNativeFunds","inputs":[{"name":"orderId","type":"uint256","internalType":"uint256"}],"outputs":[],"stateMutability":"payable"},{"type":"function","name":"lzReceive","inputs":[{"name":"_srcChainId","type":"uint16","internalType":"uint16"},{"name":"_from","type":"bytes","internalType":"bytes"},{"name":"_nonce","type":"uint64","internalType":"uint64"},{"name":"_payload","type":"bytes","internalType":"bytes"}],"outputs":[],"stateMutability":"nonpayable"},{"type":"function","name":"messageCount","inputs":[],"outputs":[{"name":"","type":"uint16","internalType":"uint16"}],"stateMutability":"view"},{"type":"function","name":"setDestinationContract","inputs":[{"name":"destination","type":"address","internalType":"address"}],"outputs":[],"stateMutability":"nonpayable"},{"type":"event","name":"LockedEscrow","inputs":[{"name":"sender","type":"address","indexed":true,"internalType":"address"},{"name":"amount","type":"uint256","indexed":false,"internalType":"uint256"},{"name":"receiver","type":"address","indexed":true,"internalType":"address"}],"anonymous":false},{"type":"event","name":"OrderCreated","inputs":[{"name":"orderId","type":"bytes32","indexed":true,"internalType":"bytes32"}],"anonymous":false},{"type":"event","name":"OrderRefill","inputs":[{"name":"orderId","type":"bytes32","indexed":true,"internalType":"bytes32"},{"name":"filledAmount","type":"uint256","indexed":false,"internalType":"uint256"}],"anonymous":false},{"type":"event","name":"ReceiveMsg","inputs":[{"name":"srcChainId","type":"uint16","indexed":false,"internalType":"uint16"},{"name":"from","type":"address","indexed":false,"internalType":"address"},{"name":"messageCount","type":"uint16","indexed":false,"internalType":"uint16"},{"name":"payload","type":"bytes","indexed":false,"internalType":"bytes"}],"anonymous":false},{"type":"error","name":"DoubleOrder","inputs":[]},{"type":"error","name":"InsufficientAllowance","inputs":[]},{"type":"error","name":"InsufficientBalance","inputs":[]},{"type":"error","name":"InvalidRequestedAmount","inputs":[]},{"type":"error","name":"InvalidSignature","inputs":[]},{"type":"error","name":"InvalidSignatureLength","inputs":[]},{"type":"error","name":"InvalidTimestamp","inputs":[]},{"type":"error","name":"OrderAlreadyFilled","inputs":[]},{"type":"error","name":"OrderExpired","inputs":[]},{"type":"error","name":"ReentrancyGuardReentrantCall","inputs":[]},{"type":"error","name":"SafeERC20FailedOperation","inputs":[{"name":"token","type":"address","internalType":"address"}]}],"bytecode":{"object":"0x608034607457601f6118e238819003918201601f19168301916001600160401b03831184841017607857808492602094604052833981010312607457516001600160a01b0381169081900360745760015f55600280546001600160a01b031916919091179055604051611855908161008d8239f35b5f80fd5b634e487b7160e01b5f52604160045260245ffdfe60806040526004361015610011575f80fd5b5f3560e01c80621d3567146100a35780630e365e391461009e5780633dbcc8d1146100995780635e280f11146100945780637ad514691461008f578063bf09fb3b1461008a578063ca32546914610085578063cd6728db146100805763eb0cc1741461007b575f80fd5b6106fb565b610667565b610544565b61037d565b610257565b61021e565b6101fd565b6101d7565b346101225760803660031901126101225760043561ffff811681036101225760243567ffffffffffffffff8111610122576100e29036906004016101b9565b5060443567ffffffffffffffff811603610122576064359067ffffffffffffffff82116101225761011a6101209236906004016101b9565b90610937565b005b5f80fd5b634e487b7160e01b5f52604160045260245ffd5b90601f8019910116810190811067ffffffffffffffff82111761015c57604052565b610126565b604051906101716101c08361013a565b565b92919267ffffffffffffffff821161015c576040519161019d601f8201601f19166020018461013a565b829481845281830111610122578281602093845f960137010152565b9080601f83011215610122578160206101d493359101610173565b90565b346101225760203660031901126101225760206101f5600435610b69565b604051908152f35b34610122575f36600319011261012257602061ffff60045416604051908152f35b34610122575f366003190112610122576002546040516001600160a01b039091168152602090f35b6001600160a01b0381160361012257565b346101225760203660031901126101225760043561027481610246565b604051906bffffffffffffffffffffffff199060601b1660208201526014815261029f60348261013a565b805167ffffffffffffffff811161015c576102c4816102bf60035461044a565b610bfb565b602091601f8211600114610302576102f2925f91836102f7575b50508160011b915f199060031b1c19161790565b600355005b015190505f806102de565b60035f52601f198216927fc2575a0e9e593c00f959f8c92f12db2869c3395a3b0502d05e2516446f71f85b915f5b8581106103655750836001951061034d575b505050811b01600355005b01515f1960f88460031b161c191690555f8080610342565b91926020600181928685015181550194019201610330565b60203660031901126101225761040f60036103a26004355f52600160205260405f2090565b60018101546103cc906103c5906001600160a01b03165b6001600160a01b031690565b3314610d5a565b6002810154610406906001600160a01b039081161673eeeeeeeeeeeeeeeeeeeeeeeeeeeeeeeeeeeeeeee8114908115610441575b50610da5565b01543414610de4565b604051348152309033907f3a86ba9d7b349fcd95ac419db6985ebd6f2f6aabe67e8763977adabb91c304ed90602090a3005b9050155f610400565b90600182811c92168015610478575b602083101461046457565b634e487b7160e01b5f52602260045260245ffd5b91607f1691610459565b9060405191825f8254926104958461044a565b80845293600181169081156104fe57506001146104ba575b506101719250038361013a565b90505f9291925260205f20905f915b8183106104e2575050906020610171928201015f6104ad565b60209193508060019154838589010152019101909184926104c9565b90506020925061017194915060ff191682840152151560051b8201015f6104ad565b805180835260209291819084018484015e5f828201840152601f01601f1916010190565b34610122575f366003190112610122576040515f6003546105648161044a565b808452906001811690811561060257506001146105a4575b6105a08361058c8185038261013a565b604051918291602083526020830190610520565b0390f35b60035f9081527fc2575a0e9e593c00f959f8c92f12db2869c3395a3b0502d05e2516446f71f85b939250905b8082106105e85750909150810160200161058c61057c565b9192600181602092548385880101520191019092916105d0565b60ff191660208086019190915291151560051b8401909101915061058c905061057c565b6064359063ffffffff8216820361012257565b9181601f840112156101225782359167ffffffffffffffff8311610122576020838186019501011161012257565b6101603660031901126101225760043561068081610246565b6024359060443561069081610246565b610698610626565b9260a43560843560e43560c4356101043567ffffffffffffffff8111610122576106c6903690600401610639565b949093610124359967ffffffffffffffff8b11610122576106ee6101209b3690600401610639565b999098610144359b610e28565b60603660031901126101225760043560243580151581036101225760443590825f52600160205260018060a01b03600160405f20015416156108695782610120935f52600160205261085960405f20610752610161565b8154815260018201546001600160a01b031660208201529060028101546001600160a01b031660408301526003810154606083015260048101546001600160a01b03811660808401526107d7906107ca906107be60a082901c63ffffffff1663ffffffff1660a0870152565b60c01c63ffffffff1690565b63ffffffff1660c0840152565b600581015460e0830152610846600682015492610100810193845260078301546101208201526101a061083f600b600886015495610140850196875261081f60098201610482565b610160860152610831600a8201610482565b610180860152015460ff1690565b1515910152565b5180421115918261085e575b5050611039565b611091565b511090505f80610852565b60405162461bcd60e51b815260206004820152601460248201527313dc99195c8819195bd95cdb89dd08195e1a5cdd60621b6044820152606490fd5b919082608091031261012257815191602081015191606060408301516108ca81610246565b9201516101d481610246565b634e487b7160e01b5f52601160045260245ffd5b61ffff1661ffff81146108fd5760010190565b6108d6565b61ffff91821681526001600160a01b03909216602083015290911660408201526080606082018190526101d492910190610520565b6002549091906001600160a01b03163303610a05577fc051b165d1bbe7c2ffd850d6890c1772327845296dbf4816c580c449ffe2e66691610a00827f3a86ba9d7b349fcd95ac419db6985ebd6f2f6aabe67e8763977adabb91c304ed6109a960206109cc9651840101602084016108a5565b6040519283526001600160a01b0390811698911693889350919081906020820190565b0390a360045461ffff166109f46109e2826108ea565b61ffff1661ffff196004541617600455565b60405194859485610902565b0390a1565b60405162461bcd60e51b815260206004820152601360248201527210d85b1b195c881b9bdd08195b991c1bda5b9d606a1b6044820152606490fd5b90610171610b21600b610a51610161565b8554815260018601546001600160a01b031660208201529460028101546001600160a01b031660408701526003810154606087015260048101546001600160a01b0381166080880152610aca90610abd906107be60a082901c63ffffffff1663ffffffff1660a08b0152565b63ffffffff1660c0880152565b600581015460e0870152600681015461010087015260078101546101208701526008810154610140870152610b0160098201610482565b610160870152610b13600a8201610482565b610180870152015460ff1690565b15156101a0840152565b919082039182116108fd57565b818102929181159184041417156108fd57565b8115610b55570490565b634e487b7160e01b5f52601260045260245ffd5b5f526001602052610b7c60405f20610a40565b610100810190815191824210610bf1576101408201928351421015610be55792610bd9610bbd610bde93610bb36101d49742610b2b565b9351905190610b2b565b91610bd460e0860195610120875191015190610b2b565b610b38565b610b4b565b9051610b2b565b50506101209150015190565b5060e09150015190565b601f8111610c07575050565b60035f5260205f20906020601f840160051c83019310610c41575b601f0160051c01905b818110610c36575050565b5f8155600101610c2b565b9091508190610c22565b601f8211610c5857505050565b5f5260205f20906020601f840160051c83019310610c90575b601f0160051c01905b818110610c85575050565b5f8155600101610c7a565b9091508190610c71565b919091825167ffffffffffffffff811161015c57610cc281610cbc845461044a565b84610c4b565b6020601f8211600114610cf5578190610cf19394955f926102f75750508160011b915f199060031b1c19161790565b9055565b601f19821690610d08845f5260205f2090565b915f5b818110610d4257509583600195969710610d2a575b505050811b019055565b01515f1960f88460031b161c191690555f8080610d20565b9192602060018192868b015181550194019201610d0b565b15610d6157565b606460405162461bcd60e51b815260206004820152602060248201527f4f6e6c79206d616b65722063616e206c6f636b206e61746976652066756e64736044820152fd5b15610dac57565b60405162461bcd60e51b815260206004820152601060248201526f2737ba103730ba34bb32903a37b5b2b760811b6044820152606490fd5b15610deb57565b60405162461bcd60e51b8152602060048201526015602482015274125b98dbdc9c9958dd08185b5bdd5b9d081cd95b9d605a1b6044820152606490fd5b9a9896959493929190610e3961135c565b610e41610161565b8d81523360208201529b6001600160a01b031660408d015260608c01526001600160a01b031660808b015263ffffffff461660a08b015263ffffffff1660c08a015260e08901526101008801526101208701526101408601523690610ea592610173565b6101608401523690610eb692610173565b6101808201526101a081015f905280610ed7835f52600160205260405f2090565b90610ee191610f17565b610eea90611444565b7f918554b6bd6e2895ce6553de5de0e1a69db5289aa0e4fe193a0dcd1f143474775f80a261017160015f55565b8151815560208201516001820180546001600160a01b039283166001600160a01b03199182161790915560408401516002840180549184169190921617905560608301516003830155608083015160048301805460a080870151939094166001600160c01b0319909116179190921b63ffffffff60a01b1617815561017192600b91611026916101a091610fd09060c083015163ffffffff16815463ffffffff60c01b191660c09190911b63ffffffff60c01b16179055565b60e0810151600586015561010081015160068601556101208101516007860155610140810151600886015561100d61016082015160098701610c9a565b61101f610180820151600a8701610c9a565b0151151590565b91019060ff801983541691151516179055565b1561104057565b60405162461bcd60e51b815260206004820152602360248201527f4f726465722065787069726564206f7220696e76616c69642074696d657374616044820152626d707360e81b6064820152608490fd5b91909161109c61135c565b6110ae815f52600160205260405f2090565b91600b8301906110bf825460ff1690565b611333578415808061132b575b61131c576110d984610b69565b9590611312575b1561130c5750835b6004840154611101906103b9906001600160a01b031681565b6040516370a0823160e01b8152336004820152602081602481855afa80156112d95787915f916112ed575b50106112de57604051636eb1769f60e11b815233600482015230602482015290602090829060449082905afa80156112d95786915f916112aa575b501061129b5760028401546001600160a01b03168573eeeeeeeeeeeeeeeeeeeeeeeeeeeeeeeeeeeeeeee8214828115611292575b5015611267575b9050145f146111fd57805460ff19166001179055505b600101546040519182526001600160a01b03169033907f3a86ba9d7b349fcd95ac419db6985ebd6f2f6aabe67e8763977adabb91c304ed90602090a361017160015f55565b506005820161120d848254610b2b565b9055600782018381548082115f146112565750505f90555b6040518381527fc94db248be0d06eb7cb2972a7247282dd67a564280747134310420f0c57930da90602090a26111b8565b9061126091610b2b565b9055611225565b61128b916001600160a01b031660018701543091906001600160a01b031690611788565b5f856111a2565b9050155f61119b565b6313be252b60e01b5f5260045ffd5b6112cc915060203d6020116112d2575b6112c4818361013a565b810190611342565b5f611167565b503d6112ba565b611351565b631e9acf1760e31b5f5260045ffd5b611306915060203d6020116112d2576112c4818361013a565b5f61112c565b936110e8565b50848110156110e0565b635a87cd4560e01b5f5260045ffd5b5081156110cc565b63ee3b3d4b60e01b5f5260045ffd5b90816020910312610122575190565b6040513d5f823e3d90fd5b60025f541461136b5760025f55565b633ee5aeb560e01b5f5260045ffd5b1561138157565b60405162461bcd60e51b815260206004820152600e60248201526d0d2dcecc2d8d2c840d8cadccee8d60931b6044820152606490fd5b60ff601b9116019060ff82116108fd57565b156113d057565b60405162461bcd60e51b815260206004820152600b60248201526a34bb30b634b21039b4b3b760a91b6044820152606490fd5b1561140a57565b60405162461bcd60e51b8152602060048201526012602482015271125b98dbdc9c9958dd08115512081cd95b9d60721b6044820152606490fd5b610140810151804211908115611779575b506110405760205f825160405161148581611477868201948560209181520190565b03601f19810183528261013a565b5190206040516114c6816114778682019485603c917f19457468657265756d205369676e6564204d6573736167653a0a3332000000008252601c8201520190565b519020610160840151906114dd604183511461137a565b838201519160606040820151910151841a92601b8410611762575b9061152391604051948594859094939260ff6060936080840197845216602083015260408201520152565b838052039060015afa156112d9575f51602082018051909161156291611551906001600160a01b03166103b9565b6001600160a01b03909116146113c9565b60408201516001600160a01b039081161673eeeeeeeeeeeeeeeeeeeeeeeeeeeeeeeeeeeeeeee8114908115611759575b50156115a8575060606101719101513414611403565b60808201805191926115f9926020906115cb906103b9906001600160a01b031681565b85516040516370a0823160e01b81526001600160a01b03909116600482015294859190829081906024820190565b03915afa9283156112d9575f93611735575b50606001918251116116f857516116779260209161164590611637906103b9906001600160a01b031681565b91516001600160a01b031690565b604051636eb1769f60e11b81526001600160a01b03909116600482015230602482015293849190829081906044820190565b03915afa9182156112d9575f926116d7575b50511161169257565b60405162461bcd60e51b815260206004820152601760248201527f496e73756666696369656e7420616c6c6c6f77616e63650000000000000000006044820152606490fd5b6116f191925060203d6020116112d2576112c4818361013a565b905f611689565b60405162461bcd60e51b8152602060048201526015602482015274696e737566666963656965746e2062616c616e636560581b6044820152606490fd5b60609193506117529060203d6020116112d2576112c4818361013a565b929061160b565b9050155f611592565b9290611770611523926113b7565b939091506114f8565b9050610100820151115f611455565b6040516323b872dd60e01b60208083019182526001600160a01b039485166024840152949093166044820152606480820195909552938452925f91906117cf60848261013a565b519082855af115611351575f513d61181657506001600160a01b0381163b155b6117f65750565b635274afe760e01b5f9081526001600160a01b0391909116600452602490fd5b600114156117ef56fea2646970667358221220bdf892df25fe5d3436df9c72eeccd2ced7f7549ab84ac7aa2e9562e8d2c6515964736f6c634300081e0033","linkReferences":{}},"methodIdentifiers":{"createOrder(address,uint256,address,uint32,uint256,uint256,uint256,uint256,bytes,bytes,uint256)":"cd6728db","destinationAddress()":"ca325469","endpoint()":"5e280f11","fillOrder(uint256,bool,uint256)":"eb0cc174","getCurrentReturnAmount(uint256)":"0e365e39","lockNativeFunds(uint256)":"bf09fb3b","lzReceive(uint16,bytes,uint64,bytes)":"001d3567","messageCount()":"3dbcc8d1","setDestinationContract(address)":"7ad51469"},"id":23}