{"abi":[{"type":"constructor","inputs":[{"name":"_endpoint","type":"address","internalType":"address"}],"stateMutability":"nonpayable"},{"type":"function","name":"createOrder","inputs":[{"name":"sourceToken","type":"address","internalType":"address"},{"name":"sourceAmount","type":"uint256","internalType":"uint256"},{"name":"destinationToken","type":"address","internalType":"address"},{"name":"destinationChainId","type":"uint32","internalType":"uint32"},{"name":"startReturnAmount","type":"uint256","internalType":"uint256"},{"name":"startTimestamp","type":"uint256","internalType":"uint256"},{"name":"minReturnAmount","type":"uint256","internalType":"uint256"},{"name":"expirationTimestamp","type":"uint256","internalType":"uint256"},{"name":"signature","type":"bytes","internalType":"bytes"},{"name":"secretHash","type":"bytes","internalType":"bytes"},{"name":"orderId","type":"uint256","internalType":"uint256"}],"outputs":[],"stateMutability":"payable"},{"type":"function","name":"destinationAddress","inputs":[],"outputs":[{"name":"","type":"bytes","internalType":"bytes"}],"stateMutability":"view"},{"type":"function","name":"endpoint","inputs":[],"outputs":[{"name":"","type":"address","internalType":"contract ILayerZeroEndpoint"}],"stateMutability":"view"},{"type":"function","name":"fillOrder","inputs":[{"name":"orderId","type":"uint256","internalType":"uint256"},{"name":"isFull","type":"bool","internalType":"bool"},{"name":"requestedAmount","type":"uint256","internalType":"uint256"}],"outputs":[],"stateMutability":"payable"},{"type":"function","name":"getCurrentReturnAmount","inputs":[{"name":"orderId","type":"uint256","internalType":"uint256"}],"outputs":[{"name":"","type":"uint256","internalType":"uint256"}],"stateMutability":"view"},{"type":"function","name":"lockNativeFunds","inputs":[{"name":"orderId","type":"uint256","internalType":"uint256"}],"outputs":[],"stateMutability":"payable"},{"type":"function","name":"lzReceive","inputs":[{"name":"_srcChainId","type":"uint16","internalType":"uint16"},{"name":"_from","type":"bytes","internalType":"bytes"},{"name":"_nonce","type":"uint64","internalType":"uint64"},{"name":"_payload","type":"bytes","internalType":"bytes"}],"outputs":[],"stateMutability":"nonpayable"},{"type":"function","name":"messageCount","inputs":[],"outputs":[{"name":"","type":"uint16","internalType":"uint16"}],"stateMutability":"view"},{"type":"function","name":"setDestinationContract","inputs":[{"name":"destination","type":"address","internalType":"address"}],"outputs":[],"stateMutability":"nonpayable"},{"type":"event","name":"LockedEscrow","inputs":[{"name":"sender","type":"address","indexed":true,"internalType":"address"},{"name":"amount","type":"uint256","indexed":false,"internalType":"uint256"},{"name":"receiver","type":"address","indexed":true,"internalType":"address"}],"anonymous":false},{"type":"event","name":"OrderCreated","inputs":[{"name":"orderId","type":"bytes32","indexed":true,"internalType":"bytes32"}],"anonymous":false},{"type":"event","name":"OrderRefill","inputs":[{"name":"orderId","type":"bytes32","indexed":true,"internalType":"bytes32"},{"name":"filledAmount","type":"uint256","indexed":false,"internalType":"uint256"}],"anonymous":false},{"type":"event","name":"ReceiveMsg","inputs":[{"name":"srcChainId","type":"uint16","indexed":false,"internalType":"uint16"},{"name":"from","type":"address","indexed":false,"internalType":"address"},{"name":"messageCount","type":"uint16","indexed":false,"internalType":"uint16"},{"name":"payload","type":"bytes","indexed":false,"internalType":"bytes"}],"anonymous":false},{"type":"error","name":"DoubleOrder","inputs":[]},{"type":"error","name":"InsufficientAllowance","inputs":[]},{"type":"error","name":"InsufficientBalance","inputs":[]},{"type":"error","name":"InvalidRequestedAmount","inputs":[]},{"type":"error","name":"InvalidSignature","inputs":[]},{"type":"error","name":"InvalidSignatureLength","inputs":[]},{"type":"error","name":"InvalidTimestamp","inputs":[]},{"type":"error","name":"OrderAlreadyFilled","inputs":[]},{"type":"error","name":"OrderExpired","inputs":[]},{"type":"error","name":"ReentrancyGuardReentrantCall","inputs":[]},{"type":"error","name":"SafeERC20FailedOperation","inputs":[{"name":"token","type":"address","internalType":"address"}]}],"bytecode":{"object":"0x608034607457601f61148e38819003918201601f19168301916001600160401b03831184841017607857808492602094604052833981010312607457516001600160a01b0381169081900360745760015f55600280546001600160a01b031916919091179055604051611401908161008d8239f35b5f80fd5b634e487b7160e01b5f52604160045260245ffdfe60806040526004361015610011575f80fd5b5f5f3560e01c80621d356714610dd15780630e365e3914610dab5780633dbcc8d114610d8a5780635e280f1114610d625780637ad5146914610bed578063bf09fb3b14610a92578063ca32546914610a5f578063cd6728db146105d65763eb0cc1741461007c575f80fd5b60603660031901126103ca57602435906004358215801584036103ca57604435825f52600160205260405f20604051906100b582610f89565b8054825260018060a01b03600182015416602083015260018060a01b0360028201541660408301526003810154606083015263ffffffff600482015460018060a01b0381166080850152818160a01c1660a085015260c01c1660c0830152600581015460e0830152600681015491610100810192835260078201546101208201526101a060ff600b60088501549461014085019586526101576009820161111e565b610160860152610169600a820161111e565b6101808601520154161515910152518042111591826105cb575b50501561057a5761019261138d565b825f52600160205260405f2090600b82019260ff84541661056b578080610563575b610554576101c18561122f565b969061054a575b15610544575084905b600481019260018060a01b038454166040516370a0823160e01b8152336004820152602081602481855afa80156103bf5785915f9161050f575b501061050057602060449160405192838092636eb1769f60e11b82523360048301523060248301525afa80156103bf5784915f916104cb575b50106104bc5760028201546001600160a01b03169673eeeeeeeeeeeeeeeeeeeeeeeeeeeeeeeeeeeeeeee881480156104b4575b15610437575b63ffffffff9596975083145f146103ce57805460ff191660011790555b6001808060a01b039101541690816040518281527f3a86ba9d7b349fcd95ac419db6985ebd6f2f6aabe67e8763977adabb91c304ed60203392a360405194602086015260408501526060840152336080840152608083526102fc60a084610fa6565b5460c01c1661030961107a565b60018060a01b036002541660405191610323602084610fa6565b5f8352813b156103ca575f93610393610363946103756040519889978896879663300bb1b360e21b8852600488015260c0602488015260c48701906111bc565b858103600319016044870152906111bc565b3360648501523060848501528381036003190160a4850152906111bc565b039134905af180156103bf576103ac575b506001815580f35b6103b891505f90610fa6565b5f5f6103a4565b6040513d5f823e3d90fd5b5f80fd5b50600581016103de838254611222565b9055600781018281548082115f146104265750505f90555b847fc94db248be0d06eb7cb2972a7247282dd67a564280747134310420f0c57930da6020604051858152a261029a565b9061043091611222565b90556103f6565b60018301546040516323b872dd60e01b60208083019182526001600160a01b039093166024830152306044830152606480830188905282525f9161047c608482610fa6565b5190828c5af1156103bf575f513d6104ab5750873b155b1561027d5787635274afe760e01b5f5260045260245ffd5b60011415610493565b508715610277565b6313be252b60e01b5f5260045ffd5b9150506020813d6020116104f8575b816104e760209383610fa6565b810103126103ca578390515f610244565b3d91506104da565b631e9acf1760e31b5f5260045ffd5b9150506020813d60201161053c575b8161052b60209383610fa6565b810103126103ca578490515f61020b565b3d915061051e565b906101d1565b50858110156101c8565b635a87cd4560e01b5f5260045ffd5b5081156101b4565b63ee3b3d4b60e01b5f5260045ffd5b60405162461bcd60e51b815260206004820152602360248201527f4f726465722065787069726564206f7220696e76616c69642074696d657374616044820152626d707360e81b6064820152608490fd5b511090505f80610183565b6101603660031901126103ca576105eb61102c565b6044356001600160a01b038116908190036103ca576064359063ffffffff82168092036103ca576101043567ffffffffffffffff81116103ca576106339036906004016111e0565b9390926101243567ffffffffffffffff81116103ca576106579036906004016111e0565b959094610144359661066761138d565b5f88815260016020819052604090912001546001600160a01b0316610a5057879660405196879561069787610f89565b89875260208701973389526040880190600160a01b600190031681526060880160243581526080890193845260a08901914663ffffffff16835260c08a0193845260e08a019560843587526101008b019760a43589526101208c019960c4358b526101408d019b60e4358d52369061070e92610fc8565b9b610160019b8c52369061072192610fc8565b6101808d019081525f6101a08e018181529e81526001602081905260409091209d518e559b519b8d0180546001600160a01b03199081166001600160a01b039e8f1617909155915160028e018054909316908d1617909155905160038c0155925160048b018054925193516001600160e01b031990931691909a161760a09290921b63ffffffff60a01b169190911760c09190911b63ffffffff60c01b1617909655516005870155516006860155516007850155516008840155518051600984019167ffffffffffffffff821161097e5781906107fe8454611042565b601f8111610a00575b50602090601f831160011461099d575f92610992575b50508160011b915f199060031b1c19161790555b518051600a83019167ffffffffffffffff821161097e576108528354611042565b601f8111610939575b50602090601f83116001146108d257600b949392915f91836108c7575b50508160011b915f199060031b1c19161790555b019051151560ff801983541691161790557f918554b6bd6e2895ce6553de5de0e1a69db5289aa0e4fe193a0dcd1f143474775f80a260015f55005b015190508780610878565b90601f19831691845f52815f20925f5b8181106109215750916001939185600b9897969410610909575b505050811b01905561088c565b01515f1960f88460031b161c191690558780806108fc565b929360206001819287860151815501950193016108e2565b835f5260205f20601f840160051c81019160208510610974575b601f0160051c01905b818110610969575061085b565b5f815560010161095c565b9091508190610953565b634e487b7160e01b5f52604160045260245ffd5b01519050878061081d565b5f8581528281209350601f198516905b8181106109e857509084600195949392106109d0575b505050811b019055610831565b01515f1960f88460031b161c191690558780806109c3565b929360206001819287860151815501950193016109ad565b909150835f5260205f20601f840160051c81019160208510610a46575b90601f859493920160051c01905b818110610a385750610807565b5f8155849350600101610a2b565b9091508190610a1d565b637d6d397760e01b5f5260045ffd5b346103ca575f3660031901126103ca57610a8e610a7a61107a565b6040519182916020835260208301906111bc565b0390f35b60203660031901126103ca576004355f52600160205260405f2060018060a01b036001820154163303610ba95760018060a01b0360028201541673eeeeeeeeeeeeeeeeeeeeeeeeeeeeeeeeeeeeeeee8114908115610ba0575b5015610b6857600301543403610b2b5760405134815230907f3a86ba9d7b349fcd95ac419db6985ebd6f2f6aabe67e8763977adabb91c304ed60203392a3005b60405162461bcd60e51b8152602060048201526015602482015274125b98dbdc9c9958dd08185b5bdd5b9d081cd95b9d605a1b6044820152606490fd5b60405162461bcd60e51b815260206004820152601060248201526f2737ba103730ba34bb32903a37b5b2b760811b6044820152606490fd5b90501582610aeb565b606460405162461bcd60e51b815260206004820152602060248201527f4f6e6c79206d616b65722063616e206c6f636b206e61746976652066756e64736044820152fd5b346103ca5760203660031901126103ca57610c0661102c565b604051906bffffffffffffffffffffffff199060601b16602082015260148152610c31603482610fa6565b805167ffffffffffffffff811161097e57610c4d600354611042565b601f8111610cfa575b50602091601f8211600114610c92579181925f92610c87575b50508160011b915f199060031b1c1916176003555f80f35b015190508280610c6f565b601f1982169260035f525f5160206113ac5f395f51905f52915f5b858110610ce257508360019510610cca575b505050811b01600355005b01515f1960f88460031b161c19169055828080610cbf565b91926020600181928685015181550194019201610cad565b60035f52601f820160051c5f5160206113ac5f395f51905f52019060208310610d4d575b601f0160051c5f5160206113ac5f395f51905f5201905b818110610d425750610c56565b5f8155600101610d35565b5f5160206113ac5f395f51905f529150610d1e565b346103ca575f3660031901126103ca576002546040516001600160a01b039091168152602090f35b346103ca575f3660031901126103ca57602061ffff60045416604051908152f35b346103ca5760203660031901126103ca576020610dc960043561122f565b604051908152f35b346103ca5760803660031901126103ca5760043561ffff81168091036103ca5760243567ffffffffffffffff81116103ca57610e1190369060040161100e565b5060443567ffffffffffffffff8116036103ca5760643567ffffffffffffffff81116103ca57610e4590369060040161100e565b6002549091906001600160a01b03163303610f4e576080828051810103126103ca576020906040830151610e7b6060850161120e565b7f3a86ba9d7b349fcd95ac419db6985ebd6f2f6aabe67e8763977adabb91c304ed6001600160a01b03610eb06080880161120e565b60405194855216946001600160a01b0390921692859290a360045461ffff81169361ffff8514610f3a5784610f359261ffff60017fc051b165d1bbe7c2ffd850d6890c1772327845296dbf4816c580c449ffe2e6669801169061ffff1916176004556040519485948552602085015260408401526080606084015260808301906111bc565b0390a1005b634e487b7160e01b5f52601160045260245ffd5b60405162461bcd60e51b815260206004820152601360248201527210d85b1b195c881b9bdd08195b991c1bda5b9d606a1b6044820152606490fd5b6101c0810190811067ffffffffffffffff82111761097e57604052565b90601f8019910116810190811067ffffffffffffffff82111761097e57604052565b92919267ffffffffffffffff821161097e5760405191610ff2601f8201601f191660200184610fa6565b8294818452818301116103ca578281602093845f960137010152565b9080601f830112156103ca5781602061102993359101610fc8565b90565b600435906001600160a01b03821682036103ca57565b90600182811c92168015611070575b602083101461105c57565b634e487b7160e01b5f52602260045260245ffd5b91607f1691611051565b604051905f826003549161108d83611042565b80835292600181169081156110ff57506001146110b3575b6110b192500383610fa6565b565b5060035f90815290915f5160206113ac5f395f51905f525b8183106110e35750509060206110b1928201016110a5565b60209193508060019154838589010152019101909184926110cb565b602092506110b194915060ff191682840152151560051b8201016110a5565b9060405191825f82549261113184611042565b808452936001811690811561119a5750600114611156575b506110b192500383610fa6565b90505f9291925260205f20905f915b81831061117e5750509060206110b1928201015f611149565b6020919350806001915483858901015201910190918492611165565b9050602092506110b194915060ff191682840152151560051b8201015f611149565b805180835260209291819084018484015e5f828201840152601f01601f1916010190565b9181601f840112156103ca5782359167ffffffffffffffff83116103ca57602083818601950101116103ca57565b51906001600160a01b03821682036103ca57565b91908203918211610f3a57565b5f52600160205260405f2060405161124681610f89565b8154815260018060a01b03600183015416602082015260018060a01b0360028301541660408201526003820154606082015263ffffffff600483015460018060a01b0381166080840152818160a01c1660a084015260c01c1660c082015260058201549060e081019182526006830154610100820190815260078401549161012081019283526101a060ff600b60088801549761014085019889526112ed6009820161111e565b6101608601526112ff600a820161111e565b6101808601520154161515910152805180421061138457845142101561137b576113459161133061133a9242611222565b9551905190611222565b918351905190611222565b838102938185041490151715610f3a5780156113675761102992049051611222565b634e487b7160e01b5f52601260045260245ffd5b50509150505190565b50505090505190565b60025f541461139c5760025f55565b633ee5aeb560e01b5f5260045ffdfec2575a0e9e593c00f959f8c92f12db2869c3395a3b0502d05e2516446f71f85ba2646970667358221220fc1aea0217815ac218d24ce98f6cf1d2a45b1140268c85c71db58a175c221fc764736f6c634300081e0033","linkReferences":{}},"methodIdentifiers":{"createOrder(address,uint256,address,uint32,uint256,uint256,uint256,uint256,bytes,bytes,uint256)":"cd6728db","destinationAddress()":"ca325469","endpoint()":"5e280f11","fillOrder(uint256,bool,uint256)":"eb0cc174","getCurrentReturnAmount(uint256)":"0e365e39","lockNativeFunds(uint256)":"bf09fb3b","lzReceive(uint16,bytes,uint64,bytes)":"001d3567","messageCount()":"3dbcc8d1","setDestinationContract(address)":"7ad51469"},"id":33}